:100000000C9453010C947B010C947B010C947B01A8
:100010000C947B010C947B010C947B010C947B0170
:100020000C947B010C947B010C947B010C947B0160
:100030000C947B010C947B010C947B010C947B0150
:100040000C94F9060C947B010C9469070C944307FB
:100050000C947B010C947B010C947B010C947B0130
:100060000C94DE050C947B010A0B0C0D0E0F20E2A4
:10007000869220416472657373653A20307800205F
:100080002050697065200041646472657373657304
:1000900020746F20726563656976653A200072612D
:1000A00064696F206861726477617265206973208A
:1000B0006E6F7420726573706F6E64696E67212154
:1000C000002020427574746F6E7320617265207019
:1000D00072657373656420636F72726563746C79A3
:1000E0003A20002020494420706C617965723A20E2
:1000F000005061796C6F616420636F6E74656E741B
:100100003A0046726F6D20736C61766520000A3D7F
:100110003D3D3D3D3D3D3D3D3D4E455720524543D6
:10012000455054494F4E3D3D3D3D3D3D3D3D3D3D9E
:1001300000202053636F72653A20002020427574BE
:10014000746F6E73546F50726573733A2000202081
:10015000436F6D6D616E643A20005061796C6F6120
:100160006420636F6E74656E743A00E29D8C205457
:1001700072616E736D697373696F6E206661696C0D
:1001800065640020C2B57300E29C85205472616EE4
:10019000736D697373696F6E2073756363657373D1
:1001A00066756C20696E200057726974696E6720ED
:1001B0007069706520616464726573733A20307889
:1001C00000536C61766520696E6465783A20000A98
:1001D0003D3D3D3D3D3D3D3D3D3D4E45572054520D
:1001E000414E534D495353494F4E3D3D3D3D3D3D9D
:1001F0003D3D3D3D0052616E646F6D2072656365EB
:100200006976657273206D61736B3A200052616E7E
:10021000646F6D20636F6D6D616E643A20000A3DFE
:100220003D3D3D3D3D3D3D3D3D56414C5320434FC1
:100230004D4D414E4420414E442052454345495680
:100240004552533D3D3D3D3D3D3D3D3D3D00000062
:100250000008000201000003040700000000000085
:10026000000000000000250028002B000000000016
:10027000240027002A0004040404040404040202E5
:100280000202020203030303030301020408102015
:10029000408001020408102001020408102000011F
:1002A000020304059B0711241FBECFEFD8E0DEBF79
:1002B000CDBF11E0A0E0B1E0E8E0FBE102C00590B5
:1002C0000D92AE32B107D9F722E0AEE2B1E001C043
:1002D0001D92AD37B207E1F711E0C3E5D1E004C0EC
:1002E0002197FE010E947C0DC235D107C9F70E94FB
:1002F000EC070C94820D0C94000090E0FC01E65792
:10030000FD4F24918A589D4FFC018491882399F0D8
:1003100090E0880F991FFC01E459FD4FA591B4911D
:10032000FC01EE59FD4F859194918FB7F894EC91B3
:10033000E22BEC938FBF089520917701260F33278E
:10034000331F21323105ECF420919B01FC0190E038
:1003500080E0243069F082E00895A0917701219136
:10036000AC01495A5E4FA40FB52FB11D2C930196D5
:10037000861798F380917701680F6093770180E08A
:10038000089581E0089508958FEF9FEF08958FEF0E
:100390009FEF08958091500190E09195819591098A
:1003A0000895CF93DF93CB01EA01642F0E949C0153
:1003B000CE01DF91CF910895CF93DF931F92CDB7F8
:1003C000DEB7698361E0CE0101960E949C0181E065
:1003D00090E00F90DF91CF91089590E0FC01E25BF7
:1003E000FD4F2491FC01E657FD4F3491FC01EA5882
:1003F000FD4FE491EE23C9F0222339F0233001F1BF
:10040000A8F4213019F1223029F1F0E0EE0FFF1F9E
:10041000EE59FD4FA591B4918FB7F894EC9161110D
:1004200026C030953E233C938FBF08952730A9F016
:100430002830C9F0243049F7809180008F7D03C0B7
:10044000809180008F7780938000DFCF84B58F7795
:1004500084BDDBCF84B58F7DFBCF8091B0008F77DB
:100460008093B000D2CF8091B0008F7DF9CF3E2B2A
:10047000DACF682F809162020E94ED0180917902AB
:1004800090917A028230910538F0880F991F880F79
:10049000991F05970197F1F7089581E00C943902AF
:1004A000682F809161029091620289130C94ED0192
:1004B00008953FB7F89480914C0190914D01A0911F
:1004C0004E01B0914F0126B5A89B05C02F3F19F0F2
:1004D0000196A11DB11D3FBFBA2FA92F982F8827C4
:1004E000BC01CD01620F711D811D911D42E0660F9F
:1004F000771F881F991F4A95D1F708958F929F9271
:10050000AF92BF92CF92DF92EF92FF924B015C01CC
:100510000E9459026B017C010E9459026C197D09ED
:100520008E099F09683E734081059105A8F321E07B
:10053000821A9108A108B10888EEC80E83E0D81E7F
:10054000E11CF11C81149104A104B10429F7FF906E
:10055000EF90DF90CF90BF90AF909F908F900895D5
:10056000AF92BF92CF92DF92EF92FF920F931F93C1
:10057000CF93DF936C017B018B01040F151FEB01FF
:100580005E01AE18BF08C017D10759F06991D601B6
:10059000ED91FC910190F081E02DC6010995892B28
:1005A00079F7C501DF91CF911F910F91FF90EF90E7
:1005B000DF90CF90BF90AF90089590E080E00895D5
:1005C000FC01538D448D252F30E0842F90E0821B59
:1005D000930B541710F0CF96089501970895FC01DE
:1005E000918D828D981761F0A28DAE0FBF2FB11D36
:1005F0005D968C91928D9F5F9F73928F90E008958E
:100600008FEF9FEF0895FC01918D828D981731F047
:10061000828DE80FF11D858D90E008958FEF9FEF9B
:100620000895FC01918D228D892F90E0805C9F4F71
:10063000821B91098F739927089581EC91E00E94A4
:10064000110321E0892B09F420E0822F089580E036
:1006500090E0892B29F00E941D0381110C94000069
:100660000895FC01A48DA80FB92FB11DA35ABF4F47
:100670002C91848D90E001968F739927848FA689A1
:10068000B7892C93A089B1898C91837080648C93F5
:10069000938D848D981306C00288F389E02D8081A4
:1006A0008F7D80830895EF92FF920F931F93CF93D6
:1006B000DF93EC0181E0888F9B8D8C8D98131AC09D
:1006C000E889F989808185FF15C09FB7F894EE8984
:1006D000FF896083E889F9898081837080648083E1
:1006E0009FBF81E090E0DF91CF911F910F91FF902C
:1006F000EF900895F62E0B8D10E00F5F1F4F0F73D4
:100700001127E02E8C8D8E110CC00FB607FCFACF8E
:10071000E889F989808185FFF5CFCE010E943103F8
:10072000F1CFEB8DEC0FFD2FF11DE35AFF4FF0825F
:100730009FB7F8940B8FEA89FB8980818062CFCFC5
:100740000F931F93CF93DF938C01D0E0C0E0F801AB
:10075000EC0FFD1F6491662341F081EC91E00E9453
:100760005303892B11F02196F2CFCE01DF91CF9167
:100770001F910F910895CF93DF93EC01888D88230B
:10078000B9F0AA89BB89E889F9898C9185FD03C0F4
:10079000808186FD0DC00FB607FCF7CF8C9185FFD9
:1007A000F2CF808185FFEDCFCE010E943103E9CFEA
:1007B000DF91CF9108958EBD00000DB407FEFDCFEF
:1007C0008EB50895FC0101900020E9F73197AF0143
:1007D000481B590BBC0181EC91E00C94B0028F9244
:1007E0009F92AF92BF920F931F93CF93DF93CDB79A
:1007F000DEB7A1970FB6F894DEBF0FBECDBF19A22A
:10080000423008F44AE08E010F5D1F4F842E912C78
:10081000B12CA12CA50194010E94160DE62FB9015F
:10082000CA01EA30F4F4E05DD801EE938D01232B88
:10083000242B252B79F790E080E0109719F0CD015B
:100840000E94E203A1960FB6F894DEBF0FBECDBFA3
:10085000DF91CF911F910F91BF90AF909F908F909C
:100860000895E95CE1CFCF92DF92EF92FF92CF93B0
:10087000DF936B017C016DE281EC91E00E945303F8
:10088000EC0166277727CB016C197D098E099F093A
:100890004AE00E94EF038C0F9D1FDF91CF91FF90E4
:1008A000EF90DF90CF900895CF93DF930E94A00345
:1008B000EC0186E191E00E94E2038C0F9D1FDF9125
:1008C000CF910895CF93DF939C01BC01990F880BC2
:1008D000990B37FF0CC00E943304EC0186E191E0D4
:1008E0000E94E2038C0F9D1FDF91CF9108954AE093
:1008F0000E94EF03F2CFFF920F931F93CF93DF93EA
:10090000F22E132FD42FC52F00E20E94490DE42FA1
:1009100040E1B9018E2F952F0E94EF0340E16F2D2A
:10092000712F8D2F9C2F0E94EF0386E191E0DF91C4
:10093000CF911F910F91FF900C94E2030F931F939F
:100940000091630210916402209165023091660269
:1009500040E052E16AE770E080E0041715072607DF
:10096000370740F476956795579547958F5F8630A2
:10097000A1F787E0982F906A9695809581709CBD2D
:100980008DBD80E01F910F910C943902CF93DF93BE
:10099000D82FC62F0E949E048D2F80620E94DB03F9
:1009A000809367028C2F0E94DB03DF91CF910C9420
:1009B0004D0260916E0261FD0AC0626060936E023A
:1009C00080E00E94C6048BE19EE40197F1F7089550
:1009D000CF93C82F0E949E048C2F0E94DB0380932C
:1009E00067028FEF0E94DB03C82F0E944D028C2FFD
:1009F000CF910895FF920F931F93CF93DF93C82F4A
:100A0000F62E072F142F0E949E048C2F80620E94C6
:100A1000DB0380936702CF2DD02F115020F08991F6
:100A20000E94DB03FACFDF91CF911F910F91FF90CE
:100A30000C944D020E94D90460916E026160609333
:100A40006E0280E00E94C60460E787E00E94C60450
:100A500081E00E94500280917002882339F0409119
:100A6000720269E672E08AE00C94FA0482E00E9465
:100A7000E804EEE9F2E0E49121E030E001C0220F69
:100A8000EA95EAF72095622F682382E00E94C60467
:100A9000109270020895CF93C82F0E949E048C2F4D
:100AA0000E94DB0380936702CF910C944D0281EE8C
:100AB0000E944B058091670208950E949E0480E584
:100AC0000E94DB038093670283E70E94DB030C94A0
:100AD0004D021F93CF93DF9385ED8093BC008091EF
:100AE000530190915401A0915501B0915601079680
:100AF000A11DB11D23E0B695A795979587952A95D9
:100B0000D1F72091BC0024FD03C010929B0152C07C
:100B100040915301509154016091550170915601DB
:100B2000452B462B472B69F30097A105B10541F0F2
:100B30002AE22A95F1F700C00197A109B109E1CF96
:100B400080915201C1E0C0935101882399F1D09165
:100B5000B8001091BA008091BC008A7B8093BC00E1
:100B600060E082E10E94ED0160E083E10E94ED011E
:100B700010929B01C0939D0110929C0161E082E163
:100B80000E94ED0161E083E10E94ED018091B900D6
:100B90008E7F8093B9008091B9008D7F8093B900DA
:100BA00088E48093B80085E48093BC001093BA0079
:100BB000D093B800DF91CF911F9108951F920F92AB
:100BC0000FB60F9211242F933F934F935F936F9320
:100BD0007F938F939F93AF93BF93EF93FF938091F6
:100BE000B900887F803609F44AC0F0F5883209F4EC
:100BF000A5C018F5803109F499C0B8F4882309F428
:100C0000F5C0883009F492C0FF91EF91BF91AF9188
:100C10009F918F917F916F915F914F913F912F9114
:100C20000F900FBE0F901F901895883109F486C061
:100C3000803251F780939A0114C0803409F49BC02C
:100C400040F48033B9F38833F9F680939A0185EC48
:100C5000AEC0803509F483C0883509F494C0883467
:100C600099F60E946905D0CF883909F48AC038F511
:100C7000883729F050F4883611F0803729F683E060
:100C800080939B011092990155C0883809F479C06E
:100C9000803919F0803809F0B7CF809199018032FE
:100CA00008F06FC0E091990181E08E0F8093990167
:100CB0008091BB00F0E0E758FE4F80833BC0803B53
:100CC00039F0D0F4803A09F477C0883A09F09CCF23
:100CD00084E080939B011092780110927701F0E0FC
:100CE000E0E009958091770181110FC081E0809348
:100CF00077011092570109C0803C09F4A8CF883CC5
:100D000009F4A5CF883B09F07FCFE091780181E01D
:100D10008E0F80937801F0E0E95AFE4F8081809336
:100D2000BB00909178018091770129C08091C0012A
:100D30008093BB0085EC8093BC0066CF9091BF018F
:100D40008091BE01981758F5E091BF0181E08E0FA8
:100D50008093BF01F0E0E256FE4F8081E9CFE09141
:100D6000BF0181E08E0F8093BF018091BB00F0E056
:100D7000E256FE4F80839091BF018091BE0198178B
:100D8000C8F285E8D8CFE091BF0181E08E0F809353
:100D9000BF018091BB00F0E0E256FE4F808380915E
:100DA0009D0181115ECF81E080939C0184EA809354
:100DB000BC0010929B0128CF85EC8093BC00109260
:100DC0009B0180919901803230F4E0919901F0E02B
:100DD000E758FE4F10826091990170E089E791E039
:100DE000F0E0E0E00995109299010ECF10929A017F
:100DF00038CF1F920F920FB60F9211242F933F936B
:100E00008F939F93AF93BF93809148019091490135
:100E1000A0914A01B0914B013091470123E0230F8B
:100E20002D3758F50196A11DB11D209347018093E0
:100E3000480190934901A0934A01B0934B018091DE
:100E40004C0190914D01A0914E01B0914F0101963E
:100E5000A11DB11D80934C0190934D01A0934E01B3
:100E6000B0934F01BF91AF919F918F913F912F917F
:100E70000F900FBE0F901F90189526E8230F029633
:100E8000A11DB11DD2CF1F920F920FB60F92112448
:100E90002F933F934F935F936F937F938F939F9382
:100EA000AF93BF93EF93FF9381EC91E00E943103E6
:100EB000FF91EF91BF91AF919F918F917F916F9132
:100EC0005F914F913F912F910F900FBE0F901F9008
:100ED00018951F920F920FB60F9211242F938F9394
:100EE0009F93EF93FF93E091D101F091D201808124
:100EF000E091D701F091D80182FD1BC090818091D3
:100F0000DA018F5F8F732091DB01821741F0E0914E
:100F1000DA01F0E0EF53FE4F958F8093DA01FF91F5
:100F2000EF919F918F912F910F900FBE0F901F9077
:100F300018958081F4CFE1ECF1E01382128288EE03
:100F400093E0A0E0B0E084839583A683B78388E034
:100F500091E09183808385EC90E09587848784EC91
:100F600090E09787868780EC90E0918B808B81EC76
:100F700090E0938B828B82EC90E0958B848B86EC57
:100F800090E0978B868B118E128E138E148EEFE568
:100F9000F2E089E082838AE0838380E896E9A8E929
:100FA000B0E084839583A683B78380E28187108A2B
:100FB000118A85E0838B81E0848B158A85E090E03F
:100FC000A0E0B0E0828F938FA48FB58F8EE592E082
:100FD0009183808312860895CF93DF93CDB7DEB7D8
:100FE00064970FB6F894DEBF0FBECDBF789484B57A
:100FF000826084BD84B5816084BD85B5826085BD15
:1010000085B5816085BD80916E00816080936E00A2
:101010001092810080918100826080938100809194
:101020008100816080938100809180008160809345
:1010300080008091B10084608093B1008091B00005
:1010400081608093B00080917A00846080937A0000
:1010500080917A00826080937A0080917A0081602A
:1010600080937A0080917A00806880937A00109251
:10107000C100E091D101F091D20182E08083E09142
:10108000CD01F091CE011082E091CF01F091D0011D
:101090008FEC80831092D901E091D501F091D601B7
:1010A00086E08083E091D301F091D401808180615A
:1010B0008083E091D301F091D401808188608083A6
:1010C000E091D301F091D401808180688083E09128
:1010D000D301F091D40180818F7D808389E191E0FB
:1010E0000E94E20386E191E00E94E2031FB7F894B8
:1010F00080912E01811124C0E0E8F2E08491E4E9BE
:10110000F2E09491E82FF0E0EE0FFF1FE459FD4F5D
:10111000A591B491EC91E92321F461E08AE00E9469
:10112000ED018AE00E947D018CB580618CBD8CB59B
:1011300080648CBD8DE00E947D018BE00E947D016A
:1011400080912E018F5F80932E011FBF80916102DD
:101150008F3F09F49BC1909162029F3F09F496C1B1
:10116000891731F00E947D01809162020E947D0109
:1011700080E00E94500281E00E94390265E070E048
:1011800080E090E00E947E026FE584E00E94C60449
:1011900086E00E94E80445E550E060E070E040939E
:1011A0007502509376026093770270937802682FED
:1011B000677D86E00E94C60486E00E94E8048DE117
:1011C0000E94E804182F0E945D058DE10E94E8044A
:1011D00091E0181390E090936F02882341F0181368
:1011E00002C00E945D0560E08DE10E94C60410927D
:1011F000710260E08CE10E94C604109273026FE3FA
:1012000081E00E94C60463E082E00E94C60480E29E
:101210008093680211E160916802812F0E94C604E8
:101220001F5F1731C1F763E083E00E94C60485E0C9
:10123000809372026CE40E94C60460E787E00E941B
:10124000C60482EE0E944B050E9457056CE080E0C8
:101250000E94C60480E00E94E80480936E020E940F
:10126000D90480916E028E3009F010C16DE785E0DF
:101270000E94C60486E00E94E804887F682F6360AD
:1012800086E00E94C6046FE584E00E94C6048DE1FA
:101290000E94E804682F64608DE10E94C6048CE11E
:1012A0000E94E804682F6F638CE10E94C60481E00D
:1012B0008093730287E890E00E94A003AA24A3947D
:1012C000B12C70E3C72EE4E4DE2EF4E3EF2EA8E4A5
:1012D000FA2E04E510E0612C712C212C312C210117
:1012E000239488248394912C8FE790E00E94A0039C
:1012F0004AE0C201B1010E94EF038EE690E00E9435
:10130000A0039601A701B801C3010E947B04C9860E
:10131000DA86EB86FC860D871E876F86788AF50154
:10132000E859FF4F21E0A212BAC0849140917202A5
:10133000BE01675F7F4F0E94FA0482E00E94E804CA
:10134000F501E256FD4FE491B40101C0660FEA9544
:10135000EAF7682B82E00E94C6043FEF231A330AA3
:10136000430A530A9601A701B801C301A1E00E94F4
:10137000640D69017A018B013C0182E0A816B10479
:1013800009F089C00E941A052FB7F894809148018E
:1013900090914901A0914A01B0914B012FBF8093D8
:1013A000430190934401A0934501B09346011092EC
:1013B00033011092340110923601109235011092CF
:1013C00037011092380110923A01109239011092AF
:1013D0003B0110923C0110923E0110923D0110928F
:1013E0003F011092400110924201109241018FEF93
:1013F00080932F01109230018093310110923201BD
:1014000044E6842E912CA12CB12C87E10E94E804A3
:1014100080FD7AC08FEF0E944B058091670290E0BB
:1014200095958795E82FE770DE2E80E60E94E80408
:10143000E82EF0E2F81750F482EE0E944B0562E0CD
:1014400070E080E090E00E947E02E12C80917302C7
:10145000F12C811106C0F0906802FE1408F4EF2C04
:10146000FE180E949E0481E60E94DB0380936702BF
:101470008E010F5E1F4FEA942FEFE21699F08FEF67
:101480000E94DB03F80181938F01F5CF8EE990E094
:101490000E945404FFCF52E0A52EB12C25CF849199
:1014A00041E046CFFA94FFEFFF1621F08FEF0E9444
:1014B000DB03F8CF0E944D0260E487E00E94C6047F
:1014C0008EE091E00E94540482E091E00E94A0032B
:1014D0000D2D0150110BC8010E94620481EF90E0B4
:1014E0000E94540483EE90E00E94A0038989082E94
:1014F000000C990B0E94620481EC90E00E94A00312
:101500008A8990E00E9462042FB7F8948091480184
:1015100090914901A0914A01B0914B012FBF409198
:1015200043015091440160914501709146018C0145
:101530009D01041B150B260B370BB901A801403D7B
:1015400057406105710508F47FC180934301909372
:101550004401A0934501B09346010E948C0C24E005
:1015600030E040E050E00E94E40C6B017C01262E4C
:101570008EE192E00E9454048DE092E00E94A0036C
:1015800082E090E00E94620485EF91E00E94A00357
:10159000C701B60177278827992742E00E94EF0309
:1015A00086E191E00E94E20380E00E945002809177
:1015B0007502909176028230910538F0880F991F5C
:1015C000880F991F05970197F1F78091710281119A
:1015D0000E94570560916E026E7F60936E0280E0FC
:1015E0000E94C60482E00E94E804EEE9F2E09491D1
:1015F00061E070E001C0660F9A95EAF7682B82E01F
:101600000E94C60400E0312CC101002E02C0959555
:1016100087950A94E2F780FF08C1F2E0F98B0E94F7
:101620008C0C20E130E040E050E00E94E40C6A8B3A
:101630000E948C0CA50194010E94E40C7C8B6B8BA6
:10164000202F30E040E050E060E070E080E090E08B
:10165000205D3E4B474B594C654A7F4F8F4F9F4F04
:1016600029833A834B835C836D837E838F83988742
:1016700040917202BE016F5F7F4F8AE00E94FA04C0
:1016800040917202BE016F5F7F4F80E10E94FA04B9
:101690000E9459022B013C018091730281111FC0ED
:1016A00010916802F12E153010F094E0F92E1F19F8
:1016B0000E949E0480EA0E94DB03809367026E0111
:1016C00021E1C20ED11CFA943FEFF31661F0F6014E
:1016D00081916F010E94DB03F6CF01E095CF10E00E
:1016E00084E0F82EE5CF115020F080E00E94DB036B
:1016F000FACF0E944D0281E00E9450028FB7F89409
:10170000C0904801D0904901E0904A01F0904B010F
:101710008FBF8FEF0E944B0580916702807309F0A5
:10172000A0C02FB7F8948091480190914901A091F1
:101730004A01B0914B012FBF8C199D09AE09BF0919
:1017400080369105A105B10520F381E080937402F4
:1017500010E00E9459026B017C018FEC91E00E9425
:10176000540481EC91E00E94A0034AE0602F70E0F5
:1017700080E090E00E94EF0386E191E00E94E203A6
:1017800088EA91E00E94A003202F30E040E050E082
:1017900060E070E080E090E0205D3B4B4B4C574BAD
:1017A0006B4A7F4F8F4F9F4F0E947B048AE591E0E9
:1017B0000E9454048EE491E00E94A003898990E085
:1017C0000E9462048BE391E00E94A0036A8970E0AA
:1017D00090E080E04AE00E94EF0386E191E00E9401
:1017E000E20381E391E00E94A0036B897C8990E091
:1017F00080E04AE00E94EF0386E191E00E94E2036C
:101800008BE691E0112379F088E891E00E94A00333
:10181000C701B60164197509860997094AE00E9453
:10182000EF0383E891E00E945404202F30E040E071
:1018300050E060E070E080E090E0A1E00E94700D78
:1018400009F04BCF0E941A0500E010E0012B09F4CB
:10185000DCCD0E941D03882309F4D7CD0E9400002F
:10186000D4CD80E00E94500260E787E00E94C60469
:101870008091670211E084FF6CCF0E94570568CF0A
:101880008F929F92AF92BF92CF92DF92EF92FF9290
:10189000CF93DF93EC01688179818A819B81611507
:1018A00071058105910521F464E279ED8BE597E0FE
:1018B0002DE133EF41E050E00E94E40C49015A0170
:1018C0009B01AC01A7EAB1E40E94030D6B017C010E
:1018D000ACEEB4EFA50194010E94110DC60ED71E07
:1018E000E81EF91EF7FE06C081E0C81AD108E1081B
:1018F00080E8F80AC882D982EA82FB82C701B60171
:101900009F77DF91CF91FF90EF90DF90CF90BF90C6
:10191000AF909F908F9008958F929F92AF92BF92B9
:10192000CF92DF92EF92FF926091000170910101DE
:101930008091020190910301611571058105910566
:1019400021F464E279ED8BE597E02DE133EF41E09E
:1019500050E00E94E40C49015A019B01AC01A7EA46
:10196000B1E40E94030D6B017C01ACEEB4EFA50164
:1019700094010E94110DC60ED71EE81EF91EF7FE37
:1019800006C081E0C81AD108E10880E8F80AC092D0
:101990000001D0920101E0920201F0920301C7011F
:1019A000B6019F77FF90EF90DF90CF90BF90AF9000
:1019B0009F908F9008956093000170930101809330
:1019C0000201909303010895052E97FB1EF40094E5
:1019D0000E94FB0C57FD07D00E94160D07FC03D098
:1019E0004EF40C94FB0C50954095309521953F4F4B
:1019F0004F4F5F4F089590958095709561957F4FFB
:101A00008F4F9F4F08950E94380DA59F900DB49F52
:101A1000900DA49F800D911D11240895B7FF0C9483
:101A2000030D0E94030D821B930B0895A1E21A2E51
:101A3000AA1BBB1BFD010DC0AA1FBB1FEE1FFF1F72
:101A4000A217B307E407F50720F0A21BB30BE40BC2
:101A5000F50B661F771F881F991F1A9469F7609509
:101A60007095809590959B01AC01BD01CF010895C3
:101A7000A29FB001B39FC001A39F700D811D1124CF
:101A8000911DB29F700D811D1124911D089597FD28
:101A90001094002E083098F00850232F342F452F33
:101AA000562F672F782F892F912DF4CF1594979566
:101AB00087957795679557954795379527950A9513
:101AC000AAF71124002D08950024A7FD00942A0FE1
:101AD000301D401D501D601D701D801D901D0895FE
:101AE0000024A7FD00942A17300540055005600525
:101AF0007005800590050895EE0FFF1F0590F49185
:081B0000E02D0994F894FFCFD9
:101B080001000000000000005303B002E002BB0324
:101B18001103EF0203030D0A004A65207375697308
:0E1B2800206C65206D617374657220210000D1
:00000001FF
