:100000000C9453010C947B010C947B010C947B01A8
:100010000C947B010C947B010C947B010C947B0170
:100020000C947B010C947B010C947B010C947B0160
:100030000C947B010C947B010C947B010C947B0150
:100040000C9415050C947B010C9485050C945F05AC
:100050000C947B010C947B010C947B010C947B0130
:100060000C947B010C947B010A0B0C0D0E0F20E20B
:10007000869220416472657373653A20307800205F
:100080002050697065200041646472657373657304
:1000900020746F20726563656976653A200072612D
:1000A00064696F206861726477617265206973208A
:1000B0006E6F7420726573706F6E64696E67212154
:1000C000002020427574746F6E7320617265207019
:1000D00072657373656420636F72726563746C79A3
:1000E0003A20002020494420706C617965723A20E2
:1000F000005061796C6F616420636F6E74656E741B
:100100003A0046726F6D20736C61766520000A3D7F
:100110003D3D3D3D3D3D3D3D3D4E455720524543D6
:10012000455054494F4E3D3D3D3D3D3D3D3D3D3D9E
:1001300000202053636F72653A20002020427574BE
:10014000746F6E73546F50726573733A2000202081
:10015000436F6D6D616E643A20005061796C6F6120
:100160006420636F6E74656E743A00E29D8C205457
:1001700072616E736D697373696F6E206661696C0D
:1001800065640020C2B57300E29C85205472616EE4
:10019000736D697373696F6E2073756363657373D1
:1001A00066756C20696E200057726974696E6720ED
:1001B0007069706520616464726573733A20307889
:1001C00000536C61766520696E6465783A20000A98
:1001D0003D3D3D3D3D3D3D3D3D3D4E45572054520D
:1001E000414E534D495353494F4E3D3D3D3D3D3D9D
:1001F0003D3D3D3D0052616E646F6D2072656365EB
:100200006976657273206D61736B3A200052616E7E
:10021000646F6D20636F6D6D616E643A20000A3DFE
:100220003D3D3D3D3D3D3D3D3D56414C5320434FC1
:100230004D4D414E4420414E442052454345495680
:100240004552533D3D3D3D3D3D3D3D3D3D00000062
:100250000008000201000003040700000000000085
:10026000000000000000250028002B000000000016
:10027000240027002A0004040404040404040202E5
:100280000202020203030303030301020408102015
:10029000408001020408102001020408102000011F
:1002A00002030405B70511241FBECFEFD8E0DEBF5F
:1002B000CDBF11E0A0E0B1E0E4E5F7E102C00590B8
:1002C0000D92AE32B107D9F722E0AEE2B1E001C043
:1002D0001D92AC30B207E1F711E0C3E5D1E004C0F4
:1002E0002197FE010E94A20BC235D107C9F70E94D7
:1002F00008060C94A80B0C94000090E0FC01E65753
:10030000FD4F24918A589D4FFC018491882399F0D8
:1003100090E0880F991FFC01E459FD4FA591B4911D
:10032000FC01EE59FD4F859194918FB7F894EC91B3
:10033000E22BEC938FBF089590E0FC01E25BFD4F50
:100340002491FC01E657FD4F3491FC01EA58FD4F22
:10035000E491EE23C9F0222339F0233001F1A8F40F
:10036000213019F1223029F1F0E0EE0FFF1FEE5994
:10037000FD4FA591B4918FB7F894EC91611126C00F
:1003800030953E233C938FBF08952730A9F0283045
:10039000C9F0243049F7809180008F7D03C080919F
:1003A00080008F7780938000DFCF84B58F7784BD06
:1003B000DBCF84B58F7DFBCF8091B0008F778093AA
:1003C000B000D2CF8091B0008F7DF9CF3E2BDACF35
:1003D000682F8091F1010E949C0180910802909108
:1003E00009028230910538F0880F991F880F991FF4
:1003F00005970197F1F7089581E00C94E801682FC3
:100400008091F0019091F10189130C949C01089561
:100410003FB7F89480914C0190914D01A0914E010D
:10042000B0914F0126B5A89B05C02F3F19F001964A
:10043000A11DB11D3FBFBA2FA92F982F8827BC013E
:10044000CD01620F711D811D911D42E0660F771F66
:10045000881F991F4A95D1F708958F929F92AF9266
:10046000BF92CF92DF92EF92FF924B015C010E940C
:1004700008026B017C010E9408026C197D098E093B
:100480009F09683E734081059105A8F321E0821A17
:100490009108A108B10888EEC80E83E0D81EE11CBF
:1004A000F11C81149104A104B10429F7FF90EF908D
:1004B000DF90CF90BF90AF909F908F900895AF92B4
:1004C000BF92CF92DF92EF92FF920F931F93CF9341
:1004D000DF936C017B018B01040F151FEB015E01A3
:1004E000AE18BF08C017D10759F06991D601ED9138
:1004F000FC910190F081E02DC6010995892B79F7D7
:10050000C501DF91CF911F910F91FF90EF90DF9088
:10051000CF90BF90AF900895FC01538D448D252F4F
:1005200030E0842F90E0821B930B541710F0CF968D
:10053000089501970895FC01918D828D981761F0BF
:10054000A28DAE0FBF2FB11D5D968C91928D9F5FD6
:100550009F73928F90E008958FEF9FEF0895FC01B5
:10056000918D828D981731F0828DE80FF11D858D68
:1005700090E008958FEF9FEF0895FC01918D228DFB
:10058000892F90E0805C9F4F821B91098F73992780
:10059000089580E591E00E94BD0221E0892B09F4D5
:1005A00020E0822F089580E090E0892B29F00E94BE
:1005B000C90281110C9400000895FC01A48DA80FBC
:1005C000B92FB11DA35ABF4F2C91848D90E0019695
:1005D0008F739927848FA689B7892C93A089B189B5
:1005E0008C91837080648C93938D848D981306C056
:1005F0000288F389E02D80818F7D80830895EF92BA
:10060000FF920F931F93CF93DF93EC0181E0888FCC
:100610009B8D8C8D98131AC0E889F989808185FF9C
:1006200015C09FB7F894EE89FF896083E889F9893E
:1006300080818370806480839FBF81E090E0DF9140
:10064000CF911F910F91FF90EF900895F62E0B8D93
:1006500010E00F5F1F4F0F731127E02E8C8D8E114E
:100660000CC00FB607FCFACFE889F989808185FFB5
:10067000F5CFCE010E94DD02F1CFEB8DEC0FFD2F07
:10068000F11DE35AFF4FF0829FB7F8940B8FEA8970
:10069000FB8980818062CFCF0F931F93CF93DF932D
:1006A0008C01D0E0C0E0F801EC0FFD1F64916623DF
:1006B00041F080E591E00E94FF02892B11F0219624
:1006C000F2CFCE01DF91CF911F910F910895CF937B
:1006D000DF93EC01888D8823B9F0AA89BB89E8896A
:1006E000F9898C9185FD03C0808186FD0DC00FB610
:1006F00007FCF7CF8C9185FFF2CF808185FFEDCF8E
:10070000CE010E94DD02E9CFDF91CF9108958EBD29
:1007100000000DB407FEFDCF8EB50895FC010190D9
:100720000020E9F73197AF01481B590BBC0180E568
:1007300091E00C945F028F929F92AF92BF920F93C1
:100740001F93CF93DF93CDB7DEB7A1970FB6F89481
:10075000DEBF0FBECDBF19A2423008F44AE08E01C1
:100760000F5D1F4F842E912CB12CA12CA50194015B
:100770000E943C0BE62FB901CA01EA30F4F4E05DB7
:10078000D801EE938D01232B242B252B79F790E0B4
:1007900080E0109719F0CD010E948E03A1960FB64C
:1007A000F894DEBF0FBECDBFDF91CF911F910F91A7
:1007B000BF90AF909F908F900895E95CE1CFCF926A
:1007C000DF92EF92FF92CF93DF936B017C016DE29A
:1007D00080E591E00E94FF02EC0166277727CB01BC
:1007E0006C197D098E099F094AE00E949B038C0FBA
:1007F0009D1FDF91CF91FF90EF90DF90CF900895F4
:10080000CF93DF930E944C03EC0186E191E00E94BC
:100810008E038C0F9D1FDF91CF910895CF93DF93AF
:100820009C01BC01990F880B990B37FF0CC00E94EB
:10083000DF03EC0186E191E00E948E038C0F9D1F87
:10084000DF91CF9108954AE00E949B03F2CFFF927F
:100850000F931F93CF93DF93F22E132FD42FC52F17
:1008600000E20E946F0BE42F40E1B9018E2F952F1B
:100870000E949B0340E16F2D712F8D2F9C2F0E94B2
:100880009B0386E191E0DF91CF911F910F91FF9043
:100890000C948E030F931F930091F2011091F301BA
:1008A0002091F4013091F50140E052E16AE770E0F7
:1008B00080E0041715072607370740F476956795FB
:1008C000579547958F5F8630A1F787E0982F906AFC
:1008D0009695809581709CBD8DBD80E01F910F9194
:1008E0000C94E801CF93DF93D82FC62F0E944A04BF
:1008F0008D2F80620E9487038093F6018C2F0E94C7
:100900008703DF91CF910C94FC016091FD0161FDA3
:100910000AC062606093FD0180E00E9472048BE176
:100920009EE40197F1F70895CF93C82F0E944A04DF
:100930008C2F0E9487038093F6018FEF0E9487031C
:10094000C82F0E94FC018C2FCF910895FF920F9326
:100950001F93CF93DF93C82FF62E072F142F0E94DB
:100960004A048C2F80620E9487038093F601CF2D6A
:10097000D02F115020F089910E948703FACFDF9188
:10098000CF911F910F91FF900C94FC010E94850460
:100990006091FD0161606093FD0180E00E9472043E
:1009A00060E787E00E94720481E00E94FF0180916D
:1009B000FF01882339F04091010268EF71E08AE07D
:1009C0000C94A60482E00E949404EEE9F2E0E49123
:1009D00021E030E001C0220FEA95EAF72095622F6E
:1009E000682382E00E9472041092FF010895CF9361
:1009F000C82F0E944A048C2F0E9487038093F6011F
:100A0000CF910C94FC0181EE0E94F7048091F601D5
:100A100008950E944A0480E50E9487038093F601AE
:100A200083E70E9487030C94FC011F920F920FB67C
:100A30000F9211242F933F938F939F93AF93BF9364
:100A40008091480190914901A0914A01B0914B01D8
:100A50003091470123E0230F2D3758F50196A11D52
:100A6000B11D209347018093480190934901A093C1
:100A70004A01B0934B0180914C0190914D01A0919E
:100A80004E01B0914F010196A11DB11D80934C0103
:100A900090934D01A0934E01B0934F01BF91AF9140
:100AA0009F918F913F912F910F900FBE0F901F90AC
:100AB000189526E8230F0296A11DB11DD2CF1F92D3
:100AC0000F920FB60F9211242F933F934F935F9382
:100AD0006F937F938F939F93AF93BF93EF93FF9306
:100AE00080E591E00E94DD02FF91EF91BF91AF910F
:100AF0009F918F917F916F915F914F913F912F9136
:100B00000F900FBE0F901F9018951F920F920FB667
:100B10000F9211242F938F939F93EF93FF93E09164
:100B20006001F09161018081E0916601F0916701BF
:100B300082FD1BC09081809169018F5F8F7320912E
:100B40006A01821741F0E0916901F0E0E05BFE4F3D
:100B5000958F80936901FF91EF919F918F912F91D4
:100B60000F900FBE0F901F9018958081F4CFE0E595
:100B7000F1E01382128288EE93E0A0E0B0E084837B
:100B80009583A683B78388E091E09183808385EC89
:100B900090E09587848784EC90E09787868780EC47
:100BA00090E0918B808B81EC90E0938B828B82EC38
:100BB00090E0958B848B86EC90E0978B868B118EE2
:100BC000128E138E148EEEEEF1E089E082838AE0BD
:100BD000838380E896E9A8E9B0E084839583A683BF
:100BE000B78380E28187108A118A85E0838B81E058
:100BF000848B158A85E090E0A0E0B0E0828F938F2F
:100C0000A48FB58F8DEE91E0918380831286089535
:100C1000CF93DF93CDB7DEB765970FB6F894DEBFFD
:100C20000FBECDBF789484B5826084BD84B58160E9
:100C300084BD85B5826085BD85B5816085BD8091A7
:100C40006E00816080936E0010928100809181001F
:100C50008260809381008091810081608093810017
:100C6000809180008160809380008091B1008460D9
:100C70008093B1008091B00081608093B00080913A
:100C80007A00846080937A0080917A0082608093F9
:100C90007A0080917A00816080937A0080917A0056
:100CA000806880937A001092C100E0916001F09119
:100CB000610182E08083E0915C01F0915D0110822E
:100CC000E0915E01F0915F018FEC808310926801EA
:100CD000E0916401F091650186E08083E09162011A
:100CE000F0916301808180618083E0916201F091E5
:100CF0006301808188608083E0916201F0916301EB
:100D0000808180688083E0916201F091630180813D
:100D10008F7D808389E191E00E948E0386E191E0DE
:100D20000E948E031FB7F89480912E01811124C078
:100D3000E0E8F2E08491E4E9F2E09491E82FF0E059
:100D4000EE0FFF1FE459FD4FA591B491EC91E923FB
:100D500021F461E08AE00E949C018AE00E947D010A
:100D60008CB580618CBD8CB580648CBD8DE00E949B
:100D70007D018BE00E947D0180912E018F5F809329
:100D80002E011FBF8091F0018F3F09F49BC190910C
:100D9000F1019F3F09F496C1891731F00E947D014E
:100DA0008091F1010E947D0180E00E94FF0181E0BD
:100DB0000E94E80165E070E080E090E00E942D0272
:100DC0006FE584E00E94720486E00E94940445E589
:100DD00050E060E070E0409304025093050260939D
:100DE000060270930702682F677D86E00E947204F6
:100DF00086E00E9494048DE10E949404182F0E94C2
:100E000009058DE10E94940491E0181390E09093FD
:100E1000FE01882341F0181302C00E94090560E01A
:100E20008DE10E9472041092000260E08CE10E9449
:100E30007204109202026FE381E00E94720463E088
:100E400082E00E94720480E28093F70111E16091D8
:100E5000F701812F0E9472041F5F1731C1F763E011
:100E600083E00E94720485E0809301026CE40E949A
:100E7000720460E787E00E94720482EE0E94F70429
:100E80000E9403056CE080E00E94720480E00E94F2
:100E900094048093FD010E9485048091FD018E30B1
:100EA00009F010C16DE785E00E94720486E00E949F
:100EB0009404887F682F636086E00E9472046FE567
:100EC00084E00E9472048DE10E949404682F6460A3
:100ED0008DE10E9472048CE10E949404682F6F637C
:100EE0008CE10E94720481E08093020287E890E026
:100EF0000E944C03AA24A394B12C70E3C72EE4E40F
:100F0000DE2EF4E3EF2EA8E4FA2E04E510E0612CC7
:100F1000712C212C312C2101239488248394912C31
:100F20008FE790E00E944C034AE0C201B1010E94A9
:100F30009B038EE690E00E944C039601A701B80146
:100F4000C3010E942704C986DA86EB86FC860D87DA
:100F50001E876F86788AF501E859FF4F21E0A212BB
:100F6000BAC0849140910102BE01675F7F4F0E9429
:100F7000A60482E00E949404F501E256FD4FE4913C
:100F8000B40101C0660FEA95EAF7682B82E00E947F
:100F900072043FEF231A330A430A530A9601A7014A
:100FA000B801C301A1E00E948A0B69017A018B019B
:100FB0003C0182E0A816B10409F089C00E94C60471
:100FC0002FB7F8948091480190914901A0914A016E
:100FD000B0914B012FBF8093430190934401A093A4
:100FE0004501B093460110923301109234011092E2
:100FF000360110923501109237011092380110928B
:101000003A011092390110923B0110923C0110926A
:101010003E0110923D0110923F011092400110924A
:101020004201109241018FEF80932F011092300105
:10103000809331011092320144E6842E912CA12C30
:10104000B12C87E10E94940480FD7AC08FEF0E944A
:10105000F7048091F60190E095958795E82FE77069
:10106000DE2E80E60E949404E82EF0E2F81750F499
:1010700082EE0E94F70462E070E080E090E00E945F
:101080002D02E12C80910202F12C811106C0F0901A
:10109000F701FE1408F4EF2CFE180E944A0481E6C2
:1010A0000E9487038093F6018E010F5E1F4FEA9422
:1010B0002FEFE21699F08FEF0E948703F8018193DA
:1010C0008F01F5CF8EE990E00E940004FFCF52E03F
:1010D000A52EB12C25CF849141E046CFFA94FFEFA5
:1010E000FF1621F08FEF0E948703F8CF0E94FC01CA
:1010F00060E487E00E9472048EE091E00E940004A8
:1011000082E091E00E944C030D2D0150110BC801AB
:101110000E940E0481EF90E00E94000483EE90E0B4
:101120000E944C038989082E000C990B0E940E0422
:1011300081EC90E00E944C038A8990E00E940E04AA
:101140002FB7F8948091480190914901A0914A01EC
:10115000B0914B012FBF40914301509144016091E8
:101160004501709146018C019D01041B150B260B56
:10117000370BB901A801403D57406105710508F4DE
:1011800089C18093430190934401A0934501B0939A
:1011900046010E94B20A25E030E040E050E00E94A3
:1011A0000A0B162F6D8B0E94B20A24E030E040E05B
:1011B00050E00E940A0B6B017C01262E8EE192E02A
:1011C0000E9400048DE092E00E944C03812F90E089
:1011D0000E940E0485EF91E00E944C03C701B60106
:1011E00077278827992742E00E949B0386E191E0B8
:1011F0000E948E0380E00E94FF0180910402909182
:1012000005028230910538F0880F991F880F991FC9
:1012100005970197F1F78091000281110E94030563
:101220006091FD016E7F6093FD0180E00E94720479
:1012300082E00E949404EEE9F2E0949161E070E0B3
:1012400001C0660F9A95EAF7682B82E00E9472044B
:1012500000E0312CC101002E02C0959587950A94BB
:10126000E2F780FF08C11D89198B0E94B20A20E1B4
:1012700030E040E050E00E940A0B6A8B0E94B20A04
:10128000A50194010E940A0B7C8B6B8B202F30E010
:1012900040E050E060E070E080E090E0205D3E4B98
:1012A000474B594C654A7F4F8F4F9F4F29833A8355
:1012B0004B835C836D837E838F839887409101028B
:1012C000BE016F5F7F4F8AE00E94A6044091010239
:1012D000BE016F5F7F4F80E10E94A6040E9408025A
:1012E0002B013C018091020281111FC01091F70176
:1012F000F12E153010F094E0F92E1F190E944A04C7
:1013000080EA0E9487038093F6016E0121E1C20EFC
:10131000D11CFA943FEFF31661F0F60181916F0151
:101320000E948703F6CF01E095CF10E084E0F82E0D
:10133000E5CF115020F080E00E948703FACF0E9491
:10134000FC0181E00E94FF018FB7F894C090480132
:10135000D0904901E0904A01F0904B018FBF8FEF90
:101360000E94F7048091F601807309F0A0C02FB7A6
:10137000F8948091480190914901A0914A01B0915F
:101380004B012FBF8C199D09AE09BF09803691050D
:10139000A105B10520F381E08093030210E00E94D3
:1013A00008026B017C018FEC91E00E94000481EC4B
:1013B00091E00E944C034AE0602F70E080E090E0F2
:1013C0000E949B0386E191E00E948E0388EA91E0EF
:1013D0000E944C03202F30E040E050E060E070E0DD
:1013E00080E090E0205D3B4B4B4C574B6B4A7F4F6E
:1013F0008F4F9F4F0E9427048AE591E00E940004CE
:101400008EE491E00E944C03898990E00E940E04D2
:101410008BE391E00E944C036A8970E090E080E0E9
:101420004AE00E949B0386E191E00E948E0381E3E3
:1014300091E00E944C036B897C8990E080E04AE057
:101440000E949B0386E191E00E948E038BE691E06F
:10145000112379F088E891E00E944C03C701B6019E
:1014600064197509860997094AE00E949B0383E87D
:1014700091E00E940004202F30E040E050E060E066
:1014800070E080E090E0A1E00E94960B09F04BCF65
:101490000E94C60400E010E0012B09F4D2CD0E94A6
:1014A000C902882309F4CDCD0E940000CACD80E096
:1014B0000E94FF0160E787E00E9472048091F601BC
:1014C00011E084FF6CCF0E94030568CF8F929F923A
:1014D000AF92BF92CF92DF92EF92FF92CF93DF93C2
:1014E000EC01688179818A819B8161157105810593
:1014F000910521F464E279ED8BE597E02DE133EF7E
:1015000041E050E00E940A0B49015A019B01AC01E5
:10151000A7EAB1E40E94290B6B017C01ACEEB4EFA9
:10152000A50194010E94370BC60ED71EE81EF91EB6
:10153000F7FE06C081E0C81AD108E10880E8F80A81
:10154000C882D982EA82FB82C701B6019F77DF9108
:10155000CF91FF90EF90DF90CF90BF90AF909F9092
:101560008F9008958F929F92AF92BF92CF92DF9209
:10157000EF92FF9260910001709101018091020150
:1015800090910301611571058105910521F464E2D3
:1015900079ED8BE597E02DE133EF41E050E00E94DB
:1015A0000A0B49015A019B01AC01A7EAB1E40E9470
:1015B000290B6B017C01ACEEB4EFA50194010E94F4
:1015C000370BC60ED71EE81EF91EF7FE06C081E0D7
:1015D000C81AD108E10880E8F80AC0920001D09248
:1015E0000101E0920201F0920301C701B6019F7769
:1015F000FF90EF90DF90CF90BF90AF909F908F9033
:10160000089560930001709301018093020190930B
:1016100003010895052E97FB1EF400940E94210BF0
:1016200057FD07D00E943C0B07FC03D04EF40C94EE
:10163000210B50954095309521953F4F4F4F5F4F6F
:10164000089590958095709561957F4F8F4F9F4F2E
:1016500008950E945E0BA59F900DB49F900DA49FCE
:10166000800D911D11240895B7FF0C94290B0E9441
:10167000290B821B930B0895A1E21A2EAA1BBB1BF8
:10168000FD010DC0AA1FBB1FEE1FFF1FA217B3074E
:10169000E407F50720F0A21BB30BE40BF50B661F64
:1016A000771F881F991F1A9469F760957095809528
:1016B00090959B01AC01BD01CF010895A29FB0019F
:1016C000B39FC001A39F700D811D1124911DB29F76
:1016D000700D811D1124911D089597FD1094002E09
:1016E000083098F00850232F342F452F562F672F9E
:1016F000782F892F912DF4CF15949795879577950D
:10170000679557954795379527950A95AAF7112418
:10171000002D08950024A7FD00942A0F301D401DC0
:10172000501D601D701D801D901D08950024A7FD93
:1017300000942A17300540055005600570058005A6
:1017400090050895EE0FFF1F0590F491E02D099488
:04175000F894FFCF3B
:101754000100000000000000FF025F028C0267032A
:10176400BD029B02AF020D0A004A652073756973BE
:0E177400206C65206D61737465722021000089
:00000001FF
