:100000000C9423010C944B010C944B010C944B0168
:100010000C944B010C944B010C944B010C94610F0C
:100020000C944B010C944B010C944B010C944B0120
:100030000C944B010C944B010C944B010C944B0110
:100040000C94170F0C944B010C9409100C94E30FB3
:100050000C944B010C944B010C944B010C944B01F0
:100060000C943B100C944B01000000002300260070
:1000700029000A0B0C0D0E0F726164696F20686114
:10008000726477617265206973206E6F7420726587
:1000900073706F6E64696E67212100202053636F57
:1000A00072653A20002020427574746F6E73546F2D
:1000B00050726573733A20002020436F6D6D616E3E
:1000C000643A20005061796C6F616420636F6E74D4
:1000D000656E743A0053636F726520757064617465
:1000E00065643A200057726F6E6720627574746F92
:1000F0006E2070726573736564000A3D3D4E45570E
:1001000020524543455054494F4E3D3D002020422A
:100110007574746F6E73206172652070726573738D
:10012000656420636F72726563746C793A20002095
:1001300020494420706C617965723A2000506179E1
:100140006C6F616420636F6E74656E743A00E29D3B
:100150008C205472616E736D697373696F6E206663
:1001600061696C65640020C2B57300E29C8520540F
:1001700072616E736D697373696F6E2073756363FB
:1001800065737366756C20696E20000A3D3D4E45AF
:1001900057205452414E534D495353494F4E3D3DC4
:1001A0000047616D652069732073746F70706564BA
:1001B0002E0057726F6E6720627574746F6E2070B8
:1001C0007265737365643A200052696768742062CF
:1001D0007574746F6E20707265737365643A200075
:1001E000494420706C617965723A2000000000007B
:1001F000240027002A00000000080002010000037C
:1002000004070000000000000000010204081020A4
:1002100040800102040810200102040810200000A0
:100220000000250028002B00040404040404040436
:10023000020202020202030303030303020001029B
:10024000030405005A1111241FBECFEFD8E0DEBF12
:10025000CDBF11E0A0E0B1E0E0EEF1E302C0059017
:100260000D92AE38B107D9F723E0AEE8B1E001C096
:100270001D92AE33B207E1F711E0C3E2D1E004C052
:100280002197FE010E94E818C232D107C9F70E94E7
:10029000BB110C94EE180C9400008230910538F0DC
:1002A000880F991F880F991F05970197F1F70895F7
:1002B000AF92BF92CF92DF92EF92FF920F931F9374
:1002C000CF93DF93EC0188819981892B89F06EBDF2
:1002D0000DB407FEFDCFBEB48B2DDF91CF911F91E2
:1002E0000F91FF90EF90DF90CF90BF90AF90089567
:1002F0008885998511E0892B09F010E8AA24A39438
:10030000862F812309F0A12C062F2C813D814E815F
:100310005F8160E271EA87E090E00E947B18F22E34
:10032000B02EE12CC22ED12CFF2019F0C6010E9464
:100330004D018A85877F09F042C08D858F3F89F006
:10034000902F912381E009F480E08A1551F0EF8528
:10035000F8898F89992369F19081892B8083AA2458
:10036000A394E989FA898081998D892B8083FF2064
:1003700019F0C6010E944D018E858F3F39F0EB893F
:10038000FC898081988D892309F0E12AE989FA891D
:100390009081898D8095892380838E858F3F09F098
:1003A000BE2C88859985892BB9F5110F1111BCCF09
:1003B00093CF9081809589238083A12CD2CFE98926
:1003C000FA898081998D892B8083FF2019F0C601DD
:1003D0000E944D018D858F3F49F0EF85F8898F8907
:1003E000902F9123A9F09081892B8083E989FA8944
:1003F0009081898D8095892380838E858F3F69F2D6
:10040000EB89FC898081988D892339F2E12AC5CF57
:10041000908180958923E9CF1695C8CF08950895D6
:10042000833081F028F4813099F08230A9F008956A
:100430008730A9F08830C9F08430B1F48091800011
:100440008F7D03C0809180008F7780938000089516
:1004500084B58F7784BD089584B58F7DFBCF80915F
:10046000B0008F778093B00008958091B0008F7DA9
:10047000F9CF1F93CF93DF93282F30E0F901EA5093
:10048000FE4F8491F901E65FFD4FD491F901E85DDB
:10049000FD4FC491CC23A9F0162F81110E941002A8
:1004A000EC2FF0E0EE0FFF1FE25EFD4FA591B4913F
:1004B0008FB7F894EC91111108C0D095DE23DC932E
:1004C0008FBFDF91CF911F910895DE2BF8CFCF938F
:1004D000DF93CCE1D3E0682F8B810E9439028A8DB3
:1004E0009B8DDF91CF910C944D01682F80911E035D
:1004F00090911F0389130C9439020895CF93DF93D1
:1005000090E0FC01E65FFD4F2491885D9D4FFC016A
:1005100084918823D1F090E0880F991FFC01E45169
:10052000FE4FA591B491FC01E25EFD4FC591D491BF
:10053000623071F49FB7F8943C91822F80958323A9
:100540008C93E8812E2B28839FBFDF91CF91089554
:100550008FB7F894EC912E2B2C938FBFF6CF4F9240
:100560005F926F927F928F929F92AF92BF92CF9243
:10057000DF92EF92FF920F931F93CF938C018091A4
:100580000101883099F08F3F09F496C0CF911F91F7
:100590000F91FF90EF90DF90CF90BF90AF909F9022
:1005A0008F907F906F905F904F900895ECE3F2E012
:1005B000C491C7FDEBCF61E088E00E947E02480154
:1005C000B12CA12CCC23F9F0712C612CC23009F094
:1005D000E2C05301480160E970ED83E090E0A301BF
:1005E00098010E949D1869017A0181E0C81AD1081A
:1005F000E108F10883E09FEFC916D104E104F1049A
:1006000009F00CF439C160E072E18AE790E0A501DD
:1006100094010E949D1829013A0168E478EE81E076
:1006200090E0A50194010E949D1869017A0181E082
:10063000C81AD108E108F108CC2309F424C1C2305A
:1006400009F069C184E09FEFC916D104E104F10407
:1006500009F00CF411C164E274EF80E090E0A501B0
:1006600094010E949D1869017A0181E0C81AD1089D
:10067000E108F10885E09FEFC916D104E104F10417
:1006800009F008F4F9C062E17AE780E090E0A501A2
:1006900094010E949D1869017A0191E0C91AD1085C
:1006A000E108F1088FEFC816D104E104F10411F05C
:1006B0000CF0D3C086E0E0C088E080930101ECE359
:1006C000F2E0C491CF3F09F461CFC13021F150F085
:1006D000C23009F43EC0C7FD59CF61E088E00E94F6
:1006E0007E0272CF14BC15BC84B5826084BD85B512
:1006F000816085BDE0E3F2E0E491F0E0EE0FFF1FE2
:10070000E25EFD4F85919491E2E1F2E0E491E093A5
:100710001302C0E050CF10928000109281008091AF
:100720008100886080938100809181008160809346
:100730008100E0E3F2E0E491F0E0EE0FFF1FE25E03
:10074000FD4F85919491E2E1F2E0E491E093120291
:1007500032CF1092B0001092B1008091B000826050
:100760008093B0008091B10081608093B100E0E39C
:10077000F2E0E491F0E0EE0FFF1FE25EFD4F8591A5
:1007800094919093110280931002E2E1F2E0E491DF
:10079000E0930F0210CF60E072E18AE790E0A301DE
:1007A00098010E949D1869017A0191E0C91AD10847
:1007B000E108F10891E0C114D10481E0E806F104F8
:1007C00084F068E478EE81E090E0A30198010E9453
:1007D0009D1869017A0191E0C91AD108E108F10870
:1007E00093E0C13009F073C080918100887F892B2C
:1007F000809381006CC0D0928900C09288002093C1
:1008000018023093190240931A0250931B028091F0
:100810006F00826080936F00B9CEC092B3002093C6
:1008200014023093150240931602509317028091E0
:100830007000826080937000A9CE730162019AE01B
:10084000F594E794D794C7949A95D1F781E0C81AA4
:10085000D108E108F10895E036C0730162018AE031
:10086000F594E794D794C7948A95D1F791E0C91A83
:10087000D108E108F10887E09091B100987F892BB9
:100880008093B10024C093E08FEFC816D104E10437
:10089000F104C9F0C4F062E17AE780E090E0A501DC
:1008A00094010E949D1869017A0191E0C91AD1084A
:1008B000E108F1088FEFC816D104E104F10411F04A
:1008C0000CF0BBCF94E085B5887F892B85BD98015E
:1008D000220F331FA4EFB1E00E94BC1828EE33E0D2
:1008E00040E050E00E947B18C13009F484CFC23050
:1008F00009F493CFC1114ACEC7BC20931C02309398
:100900001D0240931E0250931F0280916E00826070
:1009100080936E003BCE84E0AECE3FB7F8948091DA
:10092000E5019091E601A091E701B091E80126B5BB
:10093000A89B05C02F3F19F00196A11DB11D3FBF17
:10094000BA2FA92F982F8827BC01CD01620F711DE6
:10095000811D911D42E0660F771F881F991F4A95E0
:10096000D1F708958F929F92AF92BF92CF92DF926C
:10097000EF92FF924B015C010E948D046B017C01A0
:100980000E948D046C197D098E099F09683E734091
:1009900081059105A8F321E0821A9108A108B10808
:1009A00088EEC80E83E0D81EE11CF11C811491046E
:1009B000A104B10429F7FF90EF90DF90CF90BF9092
:1009C000AF909F908F900895AF92BF92CF92DF9299
:1009D000EF92FF920F931F93CF93DF936C017B01F4
:1009E0008B01040F151FEB015E01AE18BF08C01785
:1009F000D10759F06991D601ED91FC910190F081F8
:100A0000E02DC6010995892B79F7C501DF91CF91BA
:100A10001F910F91FF90EF90DF90CF90BF90AF901C
:100A20000895FC01538D448D252F30E0842F90E0F4
:100A3000821B930B541710F0CF96089501970895D9
:100A4000FC01918D828D981761F0A28DAE0FBF2FA2
:100A5000B11D5D968C91928D9F5F9F73928F90E0F8
:100A600008958FEF9FEF0895FC01918D828D981767
:100A700031F0828DE80FF11D858D90E008958FEFA4
:100A80009FEF0895FC01918D228D892F90E0805C6D
:100A90009F4F821B91098F739927089580E792E0F9
:100AA0000E94420521E0892B09F420E0822F08955D
:100AB00080E090E0892B29F00E944E0581110C9472
:100AC00000000895FC01A48DA80FB92FB11DA35AF1
:100AD000BF4F2C91848D90E001968F739927848F5E
:100AE000A689B7892C93A089B1898C918370806481
:100AF0008C93938D848D981306C00288F389E02D22
:100B000080818F7D80830895EF92FF920F931F93D2
:100B1000CF93DF93EC0181E0888F9B8D8C8D9813B0
:100B20001AC0E889F989808185FF15C09FB7F894BC
:100B3000EE89FF896083E889F98980818370806408
:100B400080839FBF81E090E0DF91CF911F910F9153
:100B5000FF90EF900895F62E0B8D10E00F5F1F4F62
:100B60000F731127E02E8C8D8E110CC00FB607FC71
:100B7000FACFE889F989808185FFF5CFCE010E94FF
:100B80006205F1CFEB8DEC0FFD2FF11DE35AFF4F06
:100B9000F0829FB7F8940B8FEA89FB89808180628D
:100BA000CFCF0F931F93CF93DF938C01D0E0C0E0A2
:100BB000F801EC0FFD1F6491662341F080E792E09D
:100BC0000E948405892B11F02196F2CFCE01DF918E
:100BD000CF911F910F910895CF93DF93EC01888DF2
:100BE0008823B9F0AA89BB89E889F9898C9185FDA8
:100BF00003C0808186FD0DC00FB607FCF7CF8C9136
:100C000085FFF2CF808185FFEDCFCE010E94620586
:100C1000E9CFDF91CF9108952091B001260F3327BE
:100C2000331F21323105ECF420914602FC0190E0A3
:100C300080E0243069F082E00895A091B001219114
:100C4000AC0140575E4FA40FB52FB11D2C930196F8
:100C5000861798F38091B001680F6093B00180E02F
:100C6000089581E008951092460281E08093450244
:100C70001092200261E082E10E94390261E083E18A
:100C80000E943902E9EBF0E080818E7F80838081D1
:100C90008D7F808388E48093B80085E48093BC00D6
:100CA0000895CF93DF9391E090938F018823B9F05B
:100CB000C091B800D091BA008091BC008A7B80932B
:100CC000BC0060E082E10E94390260E083E10E94A2
:100CD00039020E943306D093BA00C093B800DF9166
:100CE000CF9108958F929F92AF92BF92CF92DF9251
:100CF000EF92FF920F931F93CF93DF93D0916F02E8
:100D0000D13208F0D7C0182FC0916E020E948D0416
:100D10006B017C018091460281116BC082E080935F
:100D20004602109345028FEF8093440210924302D3
:100D3000D0934202AEE4B2E0E2E2F2E080E0D81307
:100D400091C01092210280912102CC0FC82BC09338
:100D5000210280912002813009F088C01092200287
:100D60000E948D046B017C01809121028093BB0065
:100D70008091480290914902A0914A02B0914B02A1
:100D8000892B8A2B8B2BA1F00E948D0400914802A5
:100D90001091490220914A0230914B026C197D0951
:100DA0008E099F09061717072807390708F442C05C
:100DB0008091BC0083FDD8CF85EC8093BC000E945D
:100DC0008D046B017C0180914602823009F450C091
:100DD000809144028F3F09F46FC0809144028032B9
:100DE00009F46CC080914402803309F469C084E046
:100DF00026C08091480290914902A0914A02B09188
:100E00004B02892B8A2B8B2B09F484CF0E948D04F3
:100E10008090480290904902A0904A02B0904B0204
:100E20006C197D098E099F0986169706A806B906D2
:100E300008F070CF809147020E94510685E0109221
:100E40004D0210926F0210924C02DF91CF911F91D0
:100E50000F91FF90EF90DF90CF90BF90AF909F9059
:100E60008F9008959D9191938F5F69CF85EEA5CF67
:100E70008091480290914902A0914A02B0914B02A0
:100E8000892B8A2B8B2B09F49ECF0E948D04009115
:100E900048021091490220914A0230914B026C198C
:100EA0007D098E099F09061717072807390708F0DB
:100EB0008ACFC0CF81E0C3CF80E0C1CF82E0BFCF77
:100EC00083E0BDCF1F93CF93DF93EA01122FDC01A4
:100ED00011968D919C91DC01ED91FC910280F38142
:100EE000E02D0995C817D90729F4812F0E947206B1
:100EF00091E0811190E0892FDF91CF911F910895AA
:100F0000CF93DF93EC018B818823A1F0888191E05E
:100F100090934C0280936E0210924D0210926F02D9
:100F200081E00E94720691E0811190E0892FDF91AB
:100F3000CF91089510920E0210920D0210924D0260
:100F400010926F020E9433068EE092E090930C02A2
:100F500080930B028FE092E090930A028093090243
:100F600081E08B83CE010E948007982F8111CECF24
:100F7000DDCF0895E0910E0280910D02E81730F464
:100F8000F0E0E751FE4F808190E008958FEF9FEFF2
:100F9000089590910E0280910D022FEF3FEF981768
:100FA00048F4E92FF0E0E751FE4F208130E09F5FE9
:100FB00090930E02C901089580910D0290910E0246
:100FC000891B990B0895CF92DF92EF92FF920F93B6
:100FD0001F93CF93DF937C01CB018A0120914C02B8
:100FE000222389F0EB016B01C40ED51ECC15DD0563
:100FF00069F06991D701ED91FC910190F081E02DAC
:10100000C7010995F3CF642F0E940C06C801DF9138
:10101000CF911F910F91FF90EF90DF90CF900895A7
:10102000CF93DF931F92CDB7DEB7698320914C0237
:101030002223F9F020916F02203258F021E030E0B5
:10104000FC013383228390E080E00F90DF91CF9109
:10105000089580914D02E82FF0E0E25BFD4F998109
:1010600090838F5F80934D0280936F0281E090E0C8
:10107000ECCF61E0CE0101960E940C06F7CF90E024
:1010800080E008958FB7F89480918E018FBF089506
:10109000FC0183858F3F19F061E00C9439020895BB
:1010A00081E00C9467028EBD00000DB407FEFDCFF9
:1010B0008EB508958CBD9DBD0895CF93DF93EC014F
:1010C00088819981892B31F0EA81FB81808191812E
:1010D0000E945A088B858F3F29F060E0DF91CF9105
:1010E0000C943902DF91CF9108958F929F92AF9225
:1010F000BF92CF92DF92EF92FF920F931F93CF9305
:10110000DF937C014B016A01B22EA32E0E945D0881
:10111000E401C80CD91CCC15DD0569F4CB2DDA2D02
:101120000C0F1D1FC017D10759F06FEFC7010E94A8
:1011300058018993F7CF6991C7010E945801EBCFFD
:10114000C7010E94480881E0DF91CF911F910F9164
:10115000FF90EF90DF90CF90BF90AF909F908F90D7
:1011600008958F929F92AF92BF92CF92DF92EF92AB
:10117000FF920F931F93CF93DF937C01B62EA72E80
:101180006A0149010E945D08E401080D191DC0179C
:10119000D10761F4CB2DDA2DCC0EDD1ECC15DD058B
:1011A00051F06991C7010E945801F8CF6991C701B8
:1011B0000E945801ECCFC7010E94480881E0DF91EE
:1011C000CF911F910F91FF90EF90DF90CF90BF9044
:1011D000AF909F908F900895AF92BF92CF92DF9281
:1011E000EF92FF920F931F93CF93DF9300D0CDB771
:1011F000DEB7DC01211103C01A962C911A97253015
:1012000008F043C051964D935D936D937C93549732
:1012100090E080E0E22EF12C8E159F05B4F41C9630
:101220002C911C9721110AC0FD01E80FF91F458779
:10123000452F562F672F77270196EECFF701E81B32
:10124000F90BEA0FFB1F4487F3CF6D018DE0C80E49
:10125000D11C18969C91189719968C91199799837F
:101260008A83AD90BC901197A114B10409F441C0D8
:101270001B960C9110E098012E0D3F1DD501149680
:101280008D919C918217930710F480E016C0F501B0
:1012900081819281208131E030934C0220936E0253
:1012A00010924D0210926F020115110599F421E080
:1012B000A701B601C5010E9462070F900F90DF9150
:1012C000CF911F910F91FF90EF90DF90CF90BF9043
:1012D000AF900895DC01ED91FC910280F381E02D47
:1012E000A801BE016F5F7F4F09950817190769F6BE
:1012F000DECF1296ED91FC911397309749F1169637
:101300002D913C9117971B960C9110E023303105DD
:1013100071F48E7F89839A830F5F1F4F9E012F5F29
:101320003F4FA701B601CF010E94B108C6CF2115DA
:10133000310519F49F779983F1CF2230310511F4EB
:101340009068F9CF2130310549F79F779064F3CF4A
:101350001496ED91FC911597309709F496CF8085FE
:10136000882309F492CF0680F781E02D309709F4A5
:101370008CCF9701A6011B966C91CE010196099521
:101380009CCF0F931F93CF93DF93EC01288130E024
:10139000F901EA50FE4F8491F901E65FFD4F049197
:1013A000F901E85DFD4F149130E020E0112399F040
:1013B00081110E941002E12FF0E0EE0FFF1FE859AB
:1013C000FF4FA591B491EC910E2391E080E009F4D8
:1013D00090E0292F382F9E81822F817098130FC0A3
:1013E0004FB7F8948091E1019091E201A091E3015F
:1013F000B091E4014FBF8F839887A987BA874FB711
:10140000F8948091E1019091E201A091E301B09103
:10141000E4014FBF4F81588569857A85841B950B00
:10142000A60BB70BC397A105B10580F08E81882369
:1014300041F0232B59F41E82DF91CF911F910F9120
:101440000895232BC9F391E09E83F6CF80E0F4CF7B
:101450002F923F924F925F926F927F928F929F92C4
:10146000AF92BF92CF92DF92EF92FF920F931F93B2
:10147000CF93DF9300D000D01F92CDB7DEB77C01B1
:10148000DC011A960C914C01BDE08B0E911CFC0105
:101490009085818599838A8320803180211431044D
:1014A00009F424C1438550E0D10114968D919C919B
:1014B00015978417950708F485C18C9191E0909356
:1014C0004C0280936E0210924D0210926F0220E047
:1014D000BE016F5F7F4FC1010E946207882309F43C
:1014E00071C1E02FF0E0FC83EB83B12CA12C01E073
:1014F0008B819C81A816B90608F019C1D1011496F8
:101500008D919C91CB80DC80CA18DB088C159D05E1
:1015100008F46C01F101F081FD830E948D042B0120
:101520003C0180914602811172C01C2D113208F0DD
:1015300010E20093460221E08B819C818C199D0969
:10154000A816B90608F420E0209345028FEF809397
:10155000440210924302810F8093420200932102C1
:10156000909121028D81880F892B80932102809197
:101570002002813009F091C0109220020E948D0457
:101580002B013C01809121028093BB008091480295
:1015900090914902A0914A02B0914B02892B8A2B6B
:1015A0008B2BA1F00E948D042091480230914902BA
:1015B00040914A0250914B026419750986099709B6
:1015C000261737074807590708F442C08091BC0026
:1015D00083FDD8CF95EC9093BC000E948D042B0125
:1015E0003C0180914602813009F45BC08091430246
:1015F000811710F410914302E2E2F2E0A9EEB1E0AB
:1016000080E0811751F191919D938F5FFACF809186
:10161000480290914902A0914A02B0914B02892B55
:101620008A2B8B2B09F47DCF0E948D0420914802D8
:101630003091490240914A0250914B026419750958
:1016400086099709261737074807590708F069CF11
:10165000809147020E94510610E010920E021093F2
:101660000D021C151D0409F0ADC034016A0C7B1C71
:101670002301C201861997098C159D05A0F5F1017A
:1016800081819281DC01ED91FC910284F385E02D52
:101690000995F20181932F01ECCFA5EEA093BC0038
:1016A0009CCF8091480290914902A0914A02B0914A
:1016B0004B02892B8A2B8B2B09F493CF0E948D042C
:1016C000209148023091490240914A0250914B02C8
:1016D00064197509860997092617370748075907B6
:1016E00008F07FCFB5CFAC0CBD1C02CFD701028074
:1016F000F381E02D309709F449C016962D913C9165
:10170000179710E01B964C9150E02330310571F58E
:10171000816089839A834F5F5F4F9401BE016F5F41
:101720007F4FCF010E947508882309F44BC0F70151
:10173000428550E030E020E060E070E0CB0124170B
:1017400035070CF042C0982F872F762F6627D701D8
:101750001C96EC91E11131C0FA01E21BF30BEE0D86
:10176000FF1DE4856E2B2F5F3F4FE9CF211531051B
:1017700019F490689983D1CF2230310511F49F7705
:10178000F9CF2130310549F6906CF4CF1496ED91E4
:10179000FC9115973097B1F08085882399F00480EB
:1017A000F581E02D309771F0202F30E0A4011B96D9
:1017B0006C91CE0101960995B7CFF701E20FF31FA7
:1017C000E585D0CF6FEF7FEFCB010F900F900F909B
:1017D0000F900F90DF91CF911F910F91FF90EF909D
:1017E000DF90CF90BF90AF909F908F907F906F9041
:1017F0005F904F903F902F9008958F929F92AF925D
:10180000BF92CF92DF92EF92FF920F931F93CF93ED
:10181000DF93EC014A015B01888199810E94280ACB
:101820002A8101E010E002C0000F111F2A95E2F7A3
:1018300001501109012E000C220B330BAB81680102
:1018400079010A2E04C0CC0CDD1CEE1CFF1C0A948E
:10185000D2F7C094D094E094F094C622D722E82224
:10186000F922E881F981B901A801482159216A21A9
:101870007B2104C0440F551F661F771FAA95D2F71E
:101880004C295D296E297F292285CF01DF91CF91D7
:101890001F910F91FF90EF90DF90CF90BF90AF908E
:1018A0009F908F900C94EC08CF93DF93CDB7DEB769
:1018B00069970FB6F894DEBF0FBECDBFFC018081E3
:1018C00091811A8A1B8A1C8A1D8A9A8389831C82A9
:1018D0001B8221E02C87862F86958695869590E041
:1018E00002969A8789871D862B87CE0101969F8B4A
:1018F0008E8B288F6770698F50E070E060E04596AE
:101900000E94FD0B69960FB6F894DEBF0FBECDBFE7
:10191000DF91CF910895CF93DF93EC0189819C8172
:10192000992351F040E0682F8A819B810E94540CDA
:101930001D82DF91CF91089560E00E943902F8CFB7
:10194000CF93DF93C6EDD1E0899199910E948B0CE2
:1019500081E0CE3DD807C1F7DF91CF910895CF93B5
:10196000DF93EC0189819C81992359F041E0682F34
:101970008A819B810E94540C81E08D83DF91CF91FD
:10198000089561E00E943902F7CF0F931F93CF9320
:10199000DF93CDB7DEB7E2970FB6F894DEBF0FBE88
:1019A000CDBF8C0162E0DC018C910E947E02F801C7
:1019B0008481882309F466C00280F381E02DD80178
:1019C00011969C91292F26952695269530E04081E9
:1019D00051811FA218A619A61AA65F8B4E8B198ECD
:1019E000188E81E089A3A9014C5F5F4F5F8F4E8FF6
:1019F0001AA288A39770AE014A5E5F4F58AB4FA7FB
:101A000089AB9AAB408151811A8A1B8A1C8A1D8A34
:101A10005A8349831C821B828C872E5E3F4F3A87F4
:101A200029871D868B879E012F5F3F4F3CA72BA7E1
:101A30008DA79EA740E050E0BA01CE018F960E948C
:101A4000FD0B41E050E060E070E0CE018B960E941B
:101A5000FD0B40E0F8016181828193810E94540C6A
:101A6000D80115961C92159781E016968C93E296F4
:101A70000FB6F894DEBF0FBECDBFDF91CF911F919F
:101A80000F91089561E081810E947E0260E0F8017B
:101A900081810E943902E4CFFC0101900020E9F726
:101AA0003197AF01481B590BBC0180E792E00C94C1
:101AB000E4048F929F92AF92BF920F931F93CF93A4
:101AC000DF93CDB7DEB7A1970FB6F894DEBF0FBE98
:101AD000CDBF19A2423008F44AE08E010F5D1F4FBE
:101AE000842E912CB12CA12CA50194010E947B186D
:101AF000E62FB901CA01EA30F4F4E05DD801EE93B3
:101B00008D01232B242B252B79F790E080E0109773
:101B100019F0CD010E944C0DA1960FB6F894DEBFCE
:101B20000FBECDBFDF91CF911F910F91BF90AF90AE
:101B30009F908F900895E95CE1CFFF920F931F93E0
:101B4000CF93DF93F22E132FD42FC52F00E20E94E4
:101B5000CD18E42F40E1B9018E2F952F0E94590D29
:101B600040E16F2D712F8D2F9C2F0E94590D8CE21B
:101B700091E0DF91CF911F910F91FF900C944C0D4C
:101B8000CF93DF93682F70E090E080E04AE00E94FE
:101B9000590DEC018CE291E00E944C0D8C0F9D1FC1
:101BA000DF91CF910895CF92DF92EF92FF92CF9382
:101BB000DF936C01092E000CEE08FF0897FF1FC091
:101BC0006DE280E792E00E948405EC0166277727AA
:101BD000CB016C197D098E099F094AE00E94590DBD
:101BE000C80FD91F8CE291E00E944C0D8C0F9D1FF5
:101BF000DF91CF91FF90EF90DF90CF9008954AE072
:101C0000C701B6010E94590DEC01ECCFCF93DF93D1
:101C10000E94D105EC018CE291E00E944C0D8C0FEA
:101C20009D1FDF91CF9108950F931F930091200383
:101C300010912103209122033091230340E052E1CF
:101C40006AE770E090E0041715072607370740F4AD
:101C500076956795579547959F5F9630A1F797E0E2
:101C6000892F806A9095869591700E945A0880E02D
:101C70001F910F910C946702CF93DF93D82FC62F3B
:101C80000E94140E8D2F80620E94530880932403BB
:101C90008C2F0E945308DF91CF910C9450086091D3
:101CA0002B0361FD0AC0626060932B0380E00E94F9
:101CB0003C0E8BE19EE40197F1F70895CF93C82F76
:101CC0000E94140E8C2F0E945308809324038FEFE0
:101CD0000E945308C82F0E9450088C2FCF9108955E
:101CE000FF920F931F93CF93DF93C82FF62E072FEA
:101CF000142F0E94140E8C2F80620E945308809330
:101D00002403CF2DD02F115020F089910E94530829
:101D1000FACFDF91CF911F910F91FF900C94500853
:101D20000E944F0E60912B03616060932B0380E053
:101D30000E943C0E60E787E00E943C0E81E00E941A
:101D4000750280912D03882339F040912F0366E2BC
:101D500073E08AE00C94700E82E00E945E0EEDE368
:101D6000F2E0E49121E030E001C0220FEA95EAF7C9
:101D70002095622F682382E00E943C0E10922D0372
:101D80000895CF93C82F0E94140E8C2F0E945308E1
:101D900080932403CF910C94500881EE0E94C10ED1
:101DA0008091240308950E94140E80E50E94530838
:101DB0008093240383E70E9453080C94500885ED18
:101DC0008093BC008091480290914902A0914A0200
:101DD000B0914B020796A11DB11D23E0B695A795C2
:101DE000979587952A95D1F72091BC0024FD03C0D3
:101DF0001092460208954091480250914902609124
:101E00004A0270914B02452B462B472B69F30097F2
:101E1000A105B10541F02AE22A95F1F700C001972A
:101E2000A109B109E1CF809147020C9451061F929C
:101E30000F920FB60F9211242F933F938F939F937E
:101E4000AF93BF938091E1019091E201A091E301F2
:101E5000B091E4013091E00123E0230F2D3758F5D4
:101E60000196A11DB11D2093E0018093E1019093A3
:101E7000E201A093E301B093E4018091E501909128
:101E8000E601A091E701B091E8010196A11DB11D05
:101E90008093E5019093E601A093E701B093E801F8
:101EA000BF91AF919F918F913F912F910F900FBE56
:101EB0000F901F90189526E8230F0296A11DB11DC3
:101EC000D2CF1F920F920FB60F9211242F933F93F0
:101ED0004F935F936F937F938F939F93AF93BF9332
:101EE000EF93FF938091140290911502A091160236
:101EF000B0911702892B8A2B8B2BD1F190910F0275
:101F0000E0911002F09111028081892780838091F5
:101F1000140290911502A0911602B09117021816A2
:101F200019061A061B069CF4809114029091150262
:101F3000A0911602B09117020197A109B1098093EF
:101F4000140290931502A0931602B0931702FF910A
:101F5000EF91BF91AF919F918F917F916F915F9121
:101F60004F913F912F910F900FBE0F901F9018959A
:101F700080910101ECE3F2E0E4919FEF9093010185
:101F8000E13051F030F0E23069F060E00E94390257
:101F9000DECF10926E00F9CF90916F009D7F9093ED
:101FA0006F00F3CF909170009D7F9093700091E04F
:101FB0009093B0009091B100987F94609093B1009D
:101FC0001092B300E2CF1F920F920FB60F9211241E
:101FD0002F933F934F935F936F937F938F939F9331
:101FE000AF93BF93EF93FF9380E792E00E94620567
:101FF000FF91EF91BF91AF919F918F917F916F91E1
:102000005F914F913F912F910F900FBE0F901F90B6
:1020100018951F920F920FB60F9211242F938F9342
:102020009F93EF93FF93E0918002F0918102808172
:10203000E0918602F091870282FD1BC09081809121
:1020400089028F5F8F7320918A02821741F0E0919D
:102050008902F0E0E059FD4F958F80938902FF914E
:10206000EF919F918F912F910F900FBE0F901F9026
:1020700018958081F4CF1F920F920FB60F92112402
:102080002F933F934F935F936F937F938F939F9380
:10209000AF93BF93EF93FF938091B900887F803611
:1020A00009F44AC0F0F5883209F4A7C018F5803168
:1020B00009F49BC0B8F4882309F4F9C0883009F406
:1020C00094C0FF91EF91BF91AF919F918F917F91BC
:1020D0006F915F914F913F912F910F900FBE0F9095
:1020E0001F901895883109F488C0803251F7809389
:1020F000440214C0803409F49DC040F48033B9F325
:102100008833F9F68093440285ECB0C0803509F439
:1021100085C0883509F496C0883499F60E94DF0E90
:10212000D0CF883909F48CC038F5883729F050F4BD
:10213000883611F0803729F683E0809346021092AA
:10214000D20157C0883809F47BC0803919F0803833
:1021500009F0B7CF8091D201803208F071C0E091D0
:10216000D20181E08E0F8093D2018091BB00F0E01C
:10217000EE54FE4F80833DC0803B39F0E0F4803A5E
:1021800009F479C0883A09F09CCF84E08093460234
:102190001092B1011092B001E0910B02F0910C028B
:1021A00009958091B00181110FC081E08093B00149
:1021B0001092900109C0803C09F4A6CF883C09F434
:1021C000A3CF883B09F07DCFE091B10181E08E0F74
:1021D0008093B101F0E0E057FE4F80818093BB0017
:1021E0009091B1018091B00129C08091210280932A
:1021F000BB0085EC8093BC0064CF9091430280913A
:102200004202981758F5E091430281E08E0F8093C7
:102210004302F0E0EE5DFD4F8081E9CFE0914302A3
:1022200081E08E0F809343028091BB00F0E0EE5D71
:10223000FD4F808390914302809142029817C8F22B
:1022400085E8D8CFE091430281E08E0F809343026E
:102250008091BB00F0E0EE5DFD4F808380914502F0
:1022600081115CCF81E08093200284EA8093BC00DE
:102270001092460226CF85EC8093BC001092460255
:102280008091D201803230F4E091D201F0E0EE543E
:10229000FE4F10826091D20170E0E0910902F0914E
:1022A0000A0282EB91E009951092D2010ACF1092B6
:1022B000440234CFE0E7F2E01382128288EE93E02A
:1022C000A0E0B0E084839583A683B7832CE031E05F
:1022D0003183208325EC30E03587248724EC30E0FF
:1022E0003787268720EC30E0318B208B21EC30E0E3
:1022F000338B228B22EC30E0358B248B26EC30E0C4
:10230000378B268B118E128E138E148EEDE0F3E038
:102310001382128284839583A683B7838EE191E032
:1023200091838083ECE1F3E089E082838AE0838318
:1023300080E896E9A8E9B0E084839583A683B78313
:1023400080E28187108A118A85E0838B81E0848B0B
:10235000158A85E090E0A0E0B0E0828F938FA48F93
:10236000B58F89E193E091838083128610921B03DD
:1023700010921A030895CF93DF93CDB7DEB7EF978E
:102380000FB6F894DEBF0FBECDBF789484B58260DF
:1023900084BD84B5816084BD85B5826085BD85B509
:1023A000816085BD80916E00816080936E00109287
:1023B0008100809181008260809381008091810002
:1023C0008160809381008091800081608093800093
:1023D0008091B10084608093B1008091B0008160F1
:1023E0008093B00080917A00846080937A0080911D
:1023F0007A00826080937A0080917A008160809375
:102400007A0080917A00806880937A001092C100EF
:10241000E0918002F091810282E08083E0917C0271
:10242000F0917D021082E0917E02F0917F028FECAC
:10243000808310928802E0918402F091850286E008
:102440008083E0918202F0918302808180618083A9
:10245000E0918202F0918302808188608083E09124
:102460008202F0918302808180688083E091820201
:10247000F091830280818F7D80838FE291E00E94C2
:102480004C0D90E080E00E94D30D80911A03909152
:102490001B03009711F00E94F21786E090E00E9463
:1024A00056178C0188E5F80180838DE093E09283D4
:1024B0008183138280E290E09583848310931B03D1
:1024C00000931A0310920E0210920D0210924D0208
:1024D00010926F020E9433068EE092E090930C02FD
:1024E00080930B028FE092E090930A02809309029E
:1024F000FF24F394F801F382C8010E948007882327
:1025000009F491C280911A0390911B031A8A1B8AC5
:102510001C8A1D8A9A8389831C821B82FC868FE712
:1025200090E09A8789871D86FB8620E040E050E096
:10253000BA018E010F5F1F4FC8010E94EC08782E70
:10254000882309F470C280911A0390911B031CAE7A
:102550001DAE1EAE1FAE9CA78BA71EA61DA6FEAA73
:1025600080E190E09CAB8BAB1FAAFDAACE018B96BD
:102570000E94280A633271058105910509F053C252
:1025800080911A0390911B031FA218A619A61AA6E0
:102590009F8B8E8B198E188EF9A224E030E03F8F2E
:1025A0002E8F1AA2F8A21A8A1B8A1C8A1D8A9A8365
:1025B00089831C821B82FC8685E090E09A8789874C
:1025C0001D86FB8620E04FEF5FEF60E070E0CE01FC
:1025D00046960E94EC08882341F020E04FEF5FEF21
:1025E00060E070E0C8010E94EC0880911A039091AD
:1025F0001B031A8A1B8A1C8A1D8A9A8389831C8260
:102600001B82FF24F394FC8681E190E09A878987FE
:102610001D86FB861F8B0E8BF88E84E0898F41E030
:1026200050E060E070E0CE0146960E94FD0B809184
:102630001A0390911B031FA218A619A61AA69F8B16
:102640008E8B198E188EF9A226E030E03F8F2E8FE8
:102650001AA2F8A21A8A1B8A1C8A1D8A9A83898365
:102660001C821B82FC8687E090E09A8789871D8602
:10267000FB8620E04FEF5FEF60E070E0CE01469612
:102680000E94EC08882341F020E04FEF5FEF60E00C
:1026900070E0C8010E94EC088BE090E00E945617A1
:1026A0007C0183E0F70180838183BAE1CB2EB3E024
:1026B000DB2ED382C282BB24B394B4821582B6824D
:1026C0001782108611861286C7010E94C50CF092EF
:1026D000D701E092D6018BE090E00E9456177C0172
:1026E00084E0F70180838183D382C282B482158221
:1026F000B6821782108611861286C7010E94C50C09
:10270000F092D901E092D8018BE090E00E94561738
:102710007C0185E0F70180838183D382C282B48209
:102720001582B6821782108611861286C7010E9412
:10273000C50CF092DB01E092DA018BE090E00E94A0
:1027400056177C0186E0F70180838183D382C282A1
:10275000B4821582B6821782108611861286C7014E
:102760000E94C50CF092DD01E092DC0161E088E09E
:102770000E947E0286E491E00E944C0D20E334E446
:1027800044E358E464E570E080E090E00E949D0D31
:1027900088E591E00E944C0D20E331E448E456E3E3
:1027A0006AE570E080E090E00E949D0DFFB6F8942D
:1027B0008091D301882309F445C18091D3018F5FB3
:1027C0008093D301FFBE80911E038F3F09F462C145
:1027D00090911F039F3F09F45DC1891741F061E0AB
:1027E0000E947E0261E080911F030E947E0280E0D1
:1027F0000E94750281E00E94670265E070E080E05F
:1028000090E00E94B2046FE584E00E943C0E86E0F6
:102810000E945E0E45E550E060E070E040933203B8
:10282000509333036093340370933503682F677DAF
:1028300086E00E943C0E86E00E945E0E8DE10E94C2
:102840005E0EF82E0E94D30E8DE10E945E0E91E086
:10285000F81290E090932C03882341F0F81202C004
:102860000E94D30E60E08DE10E943C0E10922E0378
:1028700060E08CE10E943C0E109230036FE381E037
:102880000E943C0E63E082E00E943C0E80E2809356
:102890002503E1E1FE2E609125038F2D0E943C0E61
:1028A000F394F7E1FF12F7CF63E083E00E943C0E60
:1028B00085E080932F036CE40E943C0E60E787E084
:1028C0000E943C0E82EE0E94C10E0E94CD0E6CE072
:1028D00080E00E943C0E80E00E945E0E80932B03FD
:1028E0000E944F0E80912B038E3009F0D3C06DE70C
:1028F00085E00E943C0E86E00E945E0E887F682F75
:10290000636086E00E943C0E8DE10E945E0E682F9F
:1029100064608DE10E943C0E8CE10E945E0E682F87
:102920006F638CE10E943C0E81E08093300350E3A2
:10293000E52EE98284E48A8384E38B8368E4F62EBF
:10294000FC8284E58D831E821F82188640912F03AE
:10295000B8018AE00E94700E40912F03B80180E117
:102960000E94700EEE8A81E48F8BF88E86E3898F49
:102970008AE58A8F1B8E1C8E1D8EE3E7F0E0849122
:1029800040912F03BE016A5E7F4F0E94700E82E06D
:102990000E945E0EEEE3F2E0E49161E070E001C0BF
:1029A000660FEA95EAF7682B82E00E943C0E0E94CF
:1029B000900EAA24A394B12C87E10E945E0E80FDA4
:1029C000E3C080E60E945E0EE82E80E28E1550F491
:1029D00082EE0E94C10E62E070E080E090E00E9412
:1029E000B204E12C80913003F12C811106C0F090EB
:1029F0002503FE1408F4EF2CFE180E94140E81E645
:102A00000E945308809324038E01055D1F4FEA94B2
:102A10009FEFE91609F449C08FEF0E945308F801AF
:102A200081938F01F4CF8DE691E00E944C0D8CE2F2
:102A300091E00E944C0D6AE070E080E090E00E941E
:102A4000B204F9CFE2E3F2E08491E4E1F2E09491A0
:102A5000E82FF0E0EE0FFF1FE451FE4FA591B49177
:102A6000EC91E92321F461E08AE00E94390261E0FF
:102A70008AE00E947E028CB580618CBD8CB580643A
:102A80008CBD61E08DE00E947E0261E08BE00E94DF
:102A90007E0293CE88E790E00E94060E6AE070E026
:102AA00080E090E00E94B204F9CFFA94FFEFFF16A5
:102AB00021F08FEF0E945308F8CF0E94500860E485
:102AC00087E00E943C0E8AEF90E00E94060E84ECA4
:102AD00090E00E94060E88EB90E00E94D1059BA436
:102AE000892D90E00E94D30D85EA90E00E94D105E7
:102AF000ECA48E2D0E94C00D8BE990E00E94D105C0
:102B00000DA51EA5B80190E080E04AE00E94590D95
:102B10008CE291E00E944C0D82E09816A1F093E0C7
:102B2000991609F44EC0E1E09E1273C0B092DF0125
:102B3000A092DE010E94A00CF09200011092D5013B
:102B40001092D40121C082E090E09093DF01809345
:102B5000DE0146ED842E41E0942E10E000E0F12CE1
:102B6000F401819191914F019701002E02C035959A
:102B700027950A94E2F720FF21C00E94AF0C0F5F57
:102B80001F4F0430110561F78091DE019091DF0144
:102B90008130910509F442C008F403C1029709F499
:102BA00072C080E090E0892B09F406CF0E944E05A8
:102BB000882309F401CF0E940000FECE0E948B0CF6
:102BC000DECF012B59F40E94A00C85EE90E00E940C
:102BD000060E84E690E00E94AF02D6CF0091D401A9
:102BE0001091D5010F5F1F4F1093D5010093D401B1
:102BF00085ED90E00E94D105B80190E080E04AE0C8
:102C00000E94590D8CE291E00E944C0D80ED97E0FE
:102C1000E2CF1092DF011092DE018CCF36EDE32E71
:102C200031E0F32E10E000E0612CF70181909190EB
:102C30007F01C4010E94C109582E882351F0F4017C
:102C40006580662069F0C4010E948B0CFFEFF09351
:102C500000010F5F1F4F0430110539F7912C40C060
:102C60000E94A00CF7013297808191810E94AF0CE5
:102C70000093000180EE91E00E94D105C8010E94FE
:102C8000D30D652CE6CF26EDE22E21E0F22E512C5D
:102C9000912C612C412C812CF701019111917F0124
:102CA000C8010E94C109382EF8018581332009F43A
:102CB00073C0982E882309F465C0C8010E948B0C4C
:102CC00089EC91E00E94D105882D0E94C00D592CFD
:102CD0008394F4E08F12E0CF411002C0511003C082
:102CE000662009F45ECF809100018BA79CA680E04E
:102CF0000E94750280913203909133030E944D012E
:102D000080912E0381110E94CD0E60912B036E7F66
:102D100060932B0380E00E943C0E82E00E945E0ED6
:102D2000EDE3F2E0949161E070E001C0660F9A95E6
:102D3000EAF7682B82E00E943C0E0E948D041B0182
:102D40002C0180913003811131C080912503E82E40
:102D5000833010F092E0E92EF82EFE180E94140E37
:102D600080EA0E945308809324038E01055D1F4F63
:102D7000EA94FFEFEF16F1F0F80181918F010E94C4
:102D80005308F6CF82EB91E00E94D105882D0E9476
:102D9000C00D532C632C9CCF882309F499CF439406
:102DA00097CF81EA91E00E94060EFBCEF12C82E0E3
:102DB000E82ED4CFFA94FFEFFF1621F080E00E94B6
:102DC0005308F8CF0E94500881E00E9475028FB727
:102DD000F894C090E101D090E201E090E301F0901E
:102DE000E4018FBF8FEF0E94C10E80912403807396
:102DF00009F04DC02FB7F8948091E1019091E20164
:102E0000A091E301B091E4012FBF8C199D09AE0997
:102E1000BF0980369105A105B10520F381E08093BB
:102E2000310310E00E948D046B017C010E94900E22
:102E30008BE891E00E94060E8DE391E00E94060E61
:102E40008FE291E00E94D1058BA5082E000C990B12
:102E50000E94D30D8DE091E00E94D1058CA590E0F9
:102E60000E94D30D8EE491E0112309F49CCF8BE6F0
:102E700091E00E94D105C701B60162197309840966
:102E800095094AE00E94590D86E691E08CCF80E0DA
:102E90000E94750260E787E00E943C0E8091240347
:102EA000172D84FFBFCF0E94CD0EBBCF0F931F9372
:102EB000CF93DF938230910510F482E090E0E091AF
:102EC0003C03F0913D0330E020E0B0E0A0E030971B
:102ED00099F42115310509F44AC0281B390B243017
:102EE0003105D8F58A819B816115710589F1FB0156
:102EF00093838283FE0111C040815181028113813D
:102F000048175907E0F04817590799F4109761F0EE
:102F100012960C93129713961C933296CF01DF9161
:102F2000CF911F910F91089500933C0310933D039F
:102F3000F4CF2115310551F04217530738F0A9019C
:102F4000DB019A01BD01DF01F801C1CFEF01F9CF2B
:102F500090933D0380933C03CDCFFE01E20FF31F1E
:102F6000819391932250310939832883D7CF2091BF
:102F70003A0330913B03232B41F42091040130911B
:102F8000050130933B0320933A03209102013091D5
:102F900003012115310541F42DB73EB740910601DB
:102FA00050910701241B350BE0913A03F0913B034C
:102FB000E217F307A0F42E1B3F0B2817390778F010
:102FC000AC014E5F5F4F2417350748F04E0F5F1F6F
:102FD00050933B0340933A03819391939FCFF0E04A
:102FE000E0E09CCFCF93DF930097E9F0FC013297AC
:102FF00013821282A0913C03B0913D03ED0130E0B9
:1030000020E01097A1F420813181820F931F20913D
:103010003A0330913B032817390709F061C0F09358
:103020003B03E0933A03DF91CF910895EA01CE1775
:10303000DF07E8F54A815B819E0141155105B1F733
:10304000E901FB83EA8349915991C40FD51FEC171D
:10305000FD0761F4808191810296840F951FE9013B
:1030600099838883828193819B838A83F0E0E0E067
:1030700012968D919C9113970097B9F52D913C91E3
:103080001197CD010296820F931F20913A03309140
:103090003B032817390739F6309751F510923D0355
:1030A00010923C03B0933B03A0933A03BCCFD3836D
:1030B000C28340815181840F951FC817D90761F4DD
:1030C0004E5F5F4F88819981480F591F518340831C
:1030D0008A819B81938382832115310509F0B0CFCA
:1030E000F0933D03E0933C039ECFFD01DC01C0CF94
:1030F00013821282D7CFA1E21A2EAA1BBB1BFD019D
:103100000DC0AA1FBB1FEE1FFF1FA217B307E407C6
:10311000F50720F0A21BB30BE40BF50B661F771F1E
:10312000881F991F1A9469F76095709580959095FE
:103130009B01AC01BD01CF010895052E97FB1EF444
:1031400000940E94B41857FD07D00E947B1807FC1A
:1031500003D04EF40C94B4185095409530952195B9
:103160003F4F4F4F5F4F08959095809570956195B3
:103170007F4F8F4F9F4F0895A29FB001B39FC00113
:10318000A39F700D811D1124911DB29F700D811D93
:103190001124911D089597FD1094002E083098F089
:1031A0000850232F342F452F562F672F782F892F24
:1031B000912DF4CF159497958795779567955795A9
:1031C0004795379527950A95AAF71124002D08955C
:1031D000EE0FFF1F0590F491E02D0994F894FFCFB6
:1031E000FFFF00003E038000000000008405E404AF
:1031F0001105EC054205200534050000000010080B
:10320000E3073F08B907DC07C907BA070D0A004AF8
:10321000652073756973206C6520736C6176652019
:103220004944203A20006164647265737320746FAE
:103230002073656E643A2000616464726573732064
:10324000746F20726563656976653A20004157396D
:10325000353233206E6F7420666F756E643F204385
:0E3260006865636B20776972696E67210000F4
:00000001FF
