:100000000C941E010C9446010C9446010C9446017C
:100010000C9446010C9446010C9446010C94460144
:100020000C9446010C9446010C9446010C94460134
:100030000C9446010C9446010C9446010C94460124
:100040000C94D9040C9446010C9449050C94230596
:100050000C9446010C9446010C9446010C94460104
:100060000C9446010C9446010A0B0C0D0E0F7261A4
:1000700064696F20686172647761726520697320BA
:100080006E6F7420726573706F6E64696E67212184
:1000900000202053636F72653A200020204275745F
:1000A000746F6E73546F50726573733A2000202022
:1000B000436F6D6D616E643A20005061796C6F61C1
:1000C0006420636F6E74656E743A000A3D3D3D3D79
:1000D0003D3D3D3D3D3D4E455720524543455054E5
:1000E000494F4E3D3D3D3D3D3D3D3D3D3D00202088
:1000F000427574746F6E73206172652070726573DF
:1001000073656420636F72726563746C793A200062
:100110002020494420706C617965723A200050615A
:10012000796C6F616420636F6E74656E743A00E27F
:100130009D8C205472616E736D697373696F6E204C
:100140006661696C65640020C2B57300E29C85201D
:100150005472616E736D697373696F6E207375632A
:100160006365737366756C20696E20000A3D3D3DC2
:100170003D3D3D3D3D3D3D4E4557205452414E5342
:100180004D495353494F4E3D3D3D3D3D3D3D3D3D28
:100190003D00506C617965722049443A20005261FB
:1001A0006E646F6D2074727565427574746F6E73D2
:1001B0003A20000A3D3D3D3D3D3D3D3D3D3D5452D3
:1001C000554520425554544F4E5320414E442050E3
:1001D0004C415945522049443D3D3D3D3D3D3D3D0D
:1001E0003D3D00000000080002010000030407007C
:1001F0000000000000000000000000250028002B87
:100200000000000000240027002A00040404040465
:1002100004040402020202020203030303030301B3
:10022000020408102040800102040810200102048A
:10023000081020000102030405007B0511241FBEE5
:10024000CFEFD8E0DEBFCDBF11E0A0E0B1E0EEE43B
:10025000F5E102C005900D92A835B107D9F722E06B
:10026000A8E5B1E001C01D92A432B207E1F711E0A8
:10027000CEE1D1E004C02197FE010E949F0ACD315A
:10028000D107C9F70E94CC050C94A50A0C94000074
:1002900090E0FC01E15EFD4F2491855F9D4FFC01E4
:1002A0008491882399F090E0880F991FFC01EF5FFB
:1002B000FD4FA591B491FC01E950FE4F85919491B9
:1002C0008FB7F894EC91E22BEC938FBF089590E0F8
:1002D000FC01ED51FE4F2491FC01E15EFD4F349194
:1002E000FC01E55FFD4FE491EE23C9F0222339F0D4
:1002F000233001F1A8F4213019F1223029F1F0E086
:10030000EE0FFF1FE950FE4FA591B4918FB7F894FF
:10031000EC91611126C030953E233C938FBF089528
:100320002730A9F02830C9F0243049F780918000A7
:100330008F7D03C0809180008F7780938000DFCF16
:1003400084B58F7784BDDBCF84B58F7DFBCF809163
:10035000B0008F778093B000D2CF8091B0008F7DB6
:10036000F9CF3E2BDACF682F809109020E946701F6
:1003700080912002909121028230910538F0880FFF
:10038000991F880F991F05970197F1F7089581E04C
:100390000C94B301682F809108029091090289138F
:1003A0000C94670108953FB7F8948091640190918F
:1003B0006501A0916601B091670126B5A89B05C0B3
:1003C0002F3F19F00196A11DB11D3FBFBA2FA92FD4
:1003D000982F8827BC01CD01620F711D811D911DD1
:1003E00042E0660F771F881F991F4A95D1F708953D
:1003F0008F929F92AF92BF92CF92DF92EF92FF9235
:100400004B015C010E94D3016B017C010E94D3016E
:100410006C197D098E099F09683E7340810591051D
:10042000A8F321E0821A9108A108B10888EEC80E4D
:1004300083E0D81EE11CF11C81149104A104B104D5
:1004400029F7FF90EF90DF90CF90BF90AF909F90F3
:100450008F900895AF92BF92CF92DF92EF92FF926A
:100460000F931F93CF93DF936C017B018B01040FDC
:10047000151FEB015E01AE18BF08C017D10759F078
:100480006991D601ED91FC910190F081E02DC601BA
:100490000995892B79F7C501DF91CF911F910F91B4
:1004A000FF90EF90DF90CF90BF90AF900895FC0148
:1004B000538D448D252F30E0842F90E0821B930BC9
:1004C000541710F0CF96089501970895FC01918D6F
:1004D000828D981761F0A28DAE0FBF2FB11D5D9672
:1004E0008C91928D9F5F9F73928F90E008958FEF14
:1004F0009FEF0895FC01918D828D981731F0828DC8
:10050000E80FF11D858D90E008958FEF9FEF08951E
:10051000FC01918D228D892F90E0805C9F4F821B82
:1005200091098F739927089588E691E00E948802C7
:1005300021E0892B09F420E0822F089580E090E0EB
:10054000892B29F00E94940281110C9400000895D7
:10055000FC01A48DA80FB92FB11DA35ABF4F2C9138
:10056000848D90E001968F739927848FA689B7892F
:100570002C93A089B1898C91837080648C93938D26
:10058000848D981306C00288F389E02D80818F7DC9
:1005900080830895EF92FF920F931F93CF93DF9381
:1005A000EC0181E0888F9B8D8C8D98131AC0E889AF
:1005B000F989808185FF15C09FB7F894EE89FF897E
:1005C0006083E889F98980818370806480839FBF1C
:1005D00081E090E0DF91CF911F910F91FF90EF901C
:1005E0000895F62E0B8D10E00F5F1F4F0F7311272C
:1005F000E02E8C8D8E110CC00FB607FCFACFE88967
:10060000F989808185FFF5CFCE010E94A802F1CF44
:10061000EB8DEC0FFD2FF11DE35AFF4FF0829FB7DA
:10062000F8940B8FEA89FB8980818062CFCF0F938A
:100630001F93CF93DF938C01D0E0C0E0F801EC0F63
:10064000FD1F6491662341F088E691E00E94CA0292
:10065000892B11F02196F2CFCE01DF91CF911F911E
:100660000F910895CF93DF93EC01888D8823B9F023
:10067000AA89BB89E889F9898C9185FD03C08081AD
:1006800086FD0DC00FB607FCF7CF8C9185FFF2CF2A
:10069000808185FFEDCFCE010E94A802E9CFDF91D6
:1006A000CF9108958EBD00000DB407FEFDCF8EB52D
:1006B0000895FC0101900020E9F73197AF01481B34
:1006C000590BBC0188E691E00C942A028F929F920C
:1006D000AF92BF920F931F93CF93DF93CDB7DEB747
:1006E000A1970FB6F894DEBF0FBECDBF19A242305E
:1006F00008F44AE08E010F5D1F4F842E912CB12C1F
:10070000A12CA50194010E94510AE62FB901CA014A
:10071000EA30F4F4E05DD801EE938D01232B242B15
:10072000252B79F790E080E0109719F0CD010E9419
:100730005903A1960FB6F894DEBF0FBECDBFDF916F
:10074000CF911F910F91BF90AF909F908F90089580
:10075000E95CE1CFCF93DF930E941703EC0186E1C0
:1007600091E00E9459038C0F9D1FDF91CF91089556
:10077000CF92DF92EF92FF92CF93DF936C01092E1D
:10078000000CEE08FF0897FF1FC06DE288E691E0BD
:100790000E94CA02EC0166277727CB016C197D09FC
:1007A0008E099F094AE00E946603C80FD91F86E19F
:1007B00091E00E9459038C0F9D1FDF91CF91FF9014
:1007C000EF90DF90CF9008954AE0C701B6010E94F4
:1007D0006603EC01ECCFFF920F931F93CF93DF934F
:1007E000F22E132FD42FC52F00E20E94840AE42F8B
:1007F00040E1B9018E2F952F0E94660340E16F2DD5
:10080000712F8D2F9C2F0E94660386E191E0DF916E
:10081000CF911F910F91FF900C9459030F931F9349
:1008200000910A0210910B0220910C0230910D02EE
:1008300040E052E16AE770E080E004171507260700
:10084000370740F476956795579547958F5F8630C3
:10085000A1F787E0982F906A9695809581709CBD4E
:100860008DBD80E01F910F910C94B301CF93C82FE1
:100870000E940E048C2F0E94520380930E02CF918F
:100880000C94C70181EE0E94360480910E020895F7
:10089000CF93C82F0E940E048C2F0E945203809386
:1008A0000E028FEF0E945203C82F0E94C7018C2FA7
:1008B000CF910895CF93DF93D82FC62F0E940E04B7
:1008C0008D2F80620E94520380930E028C2F0E9413
:1008D0005203DF91CF910C94C7016091150261FD25
:1008E0000AC062606093150280E00E945A048BE1A6
:1008F0009EE40197F1F70895FF920F931F93CF9312
:10090000DF93C82FF62E072F142F0E940E048C2F72
:1009100080620E94520380930E02CF2DD02F11507F
:1009200020F089910E945203FACFDF91CF911F915D
:100930000F91FF900C94C7010E946D046091150205
:1009400061606093150280E00E945A0460E787E0CE
:100950000E945A0481E00E94CA01809117028823F4
:1009600039F04091190260E172E08AE00C947C0455
:1009700082E00E944804E3E3F2E0E49121E030E009
:1009800001C0220FEA95EAF72095622F682382E0E2
:100990000E945A041092170208950E940E0480E5E6
:1009A0000E94520380930E0283E70E9452030C942C
:1009B000C7011F920F920FB60F9211242F933F93EE
:1009C0008F939F93AF93BF9380916001909161014A
:1009D000A0916201B091630130915F0123E0230F88
:1009E0002D3758F50196A11DB11D20935F0180930D
:1009F000600190936101A0936201B09363018091C3
:100A0000640190916501A0916601B0916701019622
:100A1000A11DB11D8093640190936501A0936601AF
:100A2000B0936701BF91AF919F918F913F912F91AB
:100A30000F900FBE0F901F90189526E8230F029677
:100A4000A11DB11DD2CF1F920F920FB60F9211248C
:100A50002F933F934F935F936F937F938F939F93C6
:100A6000AF93BF93EF93FF9388E691E00E94A802B3
:100A7000FF91EF91BF91AF919F918F917F916F9176
:100A80005F914F913F912F910F900FBE0F901F904C
:100A900018951F920F920FB60F9211242F938F93D8
:100AA0009F93EF93FF93E0917801F091790180811A
:100AB000E0917E01F0917F0182FD1BC090818091C9
:100AC00081018F5F8F7320918201821741F0E09145
:100AD0008101F0E0E859FE4F958F80938101FF91ED
:100AE000EF919F918F912F910F900FBE0F901F90BC
:100AF00018958081F4CFE8E6F1E01382128288EE47
:100B000093E0A0E0B0E084839583A683B78388E078
:100B100091E09183808385EC90E09587848784ECD5
:100B200090E09787868780EC90E0918B808B81ECBA
:100B300090E0938B828B82EC90E0958B848B86EC9B
:100B400090E0978B868B118E128E138E148EE6E0BA
:100B5000F2E089E082838AE0838380E896E9A8E96D
:100B6000B0E084839583A683B78380E28187108A6F
:100B7000118A85E0838B81E0848B158A85E090E083
:100B8000A0E0B0E0828F938FA48FB58F85E092E0D4
:100B90009183808312860895CF93DF93CDB7DEB71C
:100BA00064970FB6F894DEBF0FBECDBF789484B5BE
:100BB000826084BD84B5816084BD85B5826085BD59
:100BC00085B5816085BD80916E00816080936E00E7
:100BD00010928100809181008260809381008091D9
:100BE000810081608093810080918000816080938A
:100BF00080008091B10084608093B1008091B0004A
:100C000081608093B00080917A00846080937A0044
:100C100080917A00826080937A0080917A0081606E
:100C200080937A0080917A00806880937A00109295
:100C3000C100E0917801F091790182E08083E09138
:100C40007401F09175011082E0917601F0917701C5
:100C50008FEC808310928001E0917C01F0917D0106
:100C600086E08083E0917A01F0917B018081806150
:100C70008083E0917A01F0917B018081886080839C
:100C8000E0917A01F0917B01808180688083E0911E
:100C90007A01F0917B0180818F7D808389E191E0F1
:100CA0000E94590390E080E00E94B80380E391E045
:100CB0000E94590320E334E444E358E464E570E01F
:100CC00080E090E00E94EB0382E491E00E945903EF
:100CD00020E331E448E456E36AE570E080E090E028
:100CE0000E94EB031FB7F89480915801811124C032
:100CF000E5E1F2E08491E9E2F2E09491E82FF0E09E
:100D0000EE0FFF1FEF5FFD4FA591B491EC91E9232A
:100D100021F461E08AE00E9467018AE00E944801B4
:100D20008CB580618CBD8CB580648CBD8DE00E94DB
:100D300048018BE00E944801809158018F5F8093A9
:100D400058011FBF809108028F3F09F453C1909151
:100D500009029F3F09F44EC1891731F00E944801F2
:100D6000809109020E94480180E00E94CA0181E04E
:100D70000E94B30165E070E080E090E00E94F8011D
:100D80006FE584E00E945A0486E00E94480445E52D
:100D900050E060E070E040931C0250931D026093AD
:100DA0001E0270931F02682F677D86E00E945A041E
:100DB00086E00E9448048DE10E944804182F0E949A
:100DC000CD048DE10E94480491E0181390E09093C7
:100DD0001602882341F0181302C00E94CD0460E07F
:100DE0008DE10E945A041092180260E08CE10E948A
:100DF0005A0410921A026FE381E00E945A0463E0E1
:100E000082E00E945A0480E280930F0211E1609117
:100E10000F02812F0E945A041F5F1731C1F763E050
:100E200083E00E945A0485E0809319026CE40E94DA
:100E30005A0460E787E00E945A0482EE0E9436045A
:100E40000E9442046CE080E00E945A0480E00E940C
:100E50004804809315020E946D04809115028E3023
:100E600009F0C8C06DE785E00E945A0486E00E9440
:100E70004804887F682F636086E00E945A048DE1F1
:100E80000E944804682F64608DE10E945A048CE13E
:100E90000E944804682F6F638CE10E945A0481E02D
:100EA00080931A0200E3098384E48A8384E38B83BA
:100EB00018E41C8384E58D831E821F82188640916E
:100EC0001902BE016F5F7F4F8AE00E947C0440914F
:100ED0001902BE016F5F7F4F80E10E947C04098789
:100EE00081E48A871B8786E38C878AE58D871E8647
:100EF0001F86188AE9E6F0E0849140911902BE014C
:100F0000675F7F4F0E947C0482E00E944804E4E314
:100F1000F2E0E49161E070E001C0660FEA95EAF763
:100F2000682B82E00E945A040E949C042FB7F89418
:100F30008091600190916101A0916201B091630183
:100F40002FBF80935B0190935C01A0935D01B093F0
:100F50005E010E94C70920ED37E040E050E00E94AA
:100F60001F0A68517C4F8F4F9F4F70935A016093B7
:100F7000590130ED432E37E0532E612C712C01E0E6
:100F800010E02224239487E10E94480480FD73C06E
:100F900080E60E944804C82E80E28C1550F482EE50
:100FA0000E94360462E070E080E090E00E94F80168
:100FB000C12C80911A02D12C811106C0D0900F0251
:100FC000DC1408F4CD2CDC180E940E0481E60E948B
:100FD000520380930E027E0191E1E90EF11CCA9446
:100FE000EFEFCE1661F08FEF0E945203F70181936D
:100FF0007F01F5CF8EE690E00E94AA03FFCFDA943E
:10100000FFEFDF1621F08FEF0E945203F8CF0E940E
:10101000C70160E487E00E945A048BEC90E00E94D4
:10102000AA038AEB90E00E94AA038EEA90E00E9455
:101030001703898990E00E94B8038BE990E00E9431
:1010400017036A8970E090E080E04AE00E9466033E
:1010500086E191E00E94590381E990E00E94170324
:101060006B897C8990E080E04AE00E94660386E11B
:1010700091E00E9459038FB7F894C0906001D0901E
:101080006101E0906201F09063018FBF80915B018C
:1010900090915C01A0915D01B0915E01B701A60144
:1010A000481B590B6A0B7B0B8091590190915A0197
:1010B000B0E0A0E0481759076A077B0708F4FEC0B4
:1010C0000E94C709A30192010E941F0A68517C4F28
:1010D0008F4F9F4F70935A0160935901C0925B01EB
:1010E000D0925C01E0925D01F0925E010E94C7091E
:1010F00022E030E040E050E00E941F0AFF24F39419
:10110000672B682B692B09F4F12C83EB91E00E948B
:10111000AA038EE991E00E9417038F2D90E00E94B0
:10112000B80382E991E00E94170390E080E00E94FA
:10113000B803198AFA8A80E00E94CA0180911C02D1
:1011400090911D028230910538F0880F991F880F09
:10115000991F05970197F1F78091180281110E945C
:101160004204609115026E7F6093150280E00E9438
:101170005A0482E00E944804E3E3F2E09491B8014B
:1011800001C0660F9A95EAF7682B82E00E945A0424
:101190000E94D3014B015C0180911A0281111EC093
:1011A00080910F02C82E833010F092E0C92ED82E05
:1011B000DC180E940E0480EA0E94520380930E0203
:1011C0007E01F1E1EF0EF11CCA948FEFC81651F0C9
:1011D000F70181917F010E945203F6CFD12C82E06A
:1011E000C82EE7CFDA94FFEFDF1621F080E00E94EF
:1011F0005203F8CF0E94C70181E00E94CA018FB755
:10120000F894C0906001D0906101E0906201F0908C
:1012100063018FBF8FEF0E94360480910E028073AE
:1012200009F059C02FB7F894809160019091610145
:10123000A0916201B09163012FBF8C199D09AE0985
:10124000BF0980369105A105B10520F320921B024C
:10125000312C0E94D3016B017C010E949C048CE61E
:1012600091E00E94AA038EE191E00E94AA0380E12E
:1012700091E00E9417038989082E000C990B0E94A7
:10128000B8038EEE90E00E9417038A8990E00E94D6
:10129000B8038FE291E0332079F08CE491E00E9472
:1012A0001703C701B601681979098A099B094AE041
:1012B0000E94660387E491E00E94AA0380E090E028
:1012C000892B09F460CE0E949402882309F45BCE36
:1012D0000E94000058CE80E00E94CA0160E787E0CB
:1012E0000E945A0480910E023324339484FFB1CFBC
:1012F0000E944204ADCF8F929F92AF92BF92CF9245
:10130000DF92EF92FF92CF93DF93EC0168817981B6
:101310008A819B81611571058105910521F464E243
:1013200079ED8BE597E02DE133EF41E050E00E944D
:101330001F0A49015A019B01AC01A7EAB1E40E94CE
:101340003E0A6B017C01ACEEB4EFA50194010E9452
:101350004C0AC60ED71EE81EF91EF7FE06C081E035
:10136000C81AD108E10880E8F80AC882D982EA825E
:10137000FB82C701B6019F77DF91CF91FF90EF907D
:10138000DF90CF90BF90AF909F908F9008958F92F5
:101390009F92AF92BF92CF92DF92EF92FF926091B5
:1013A000000170910101809102019091030161158A
:1013B00071058105910521F464E279ED8BE597E0F3
:1013C0002DE133EF41E050E00E941F0A49015A012C
:1013D0009B01AC01A7EAB1E40E943E0A6B017C01CB
:1013E000ACEEB4EFA50194010E944C0AC60ED71EC4
:1013F000E81EF91EF7FE06C081E0C81AD108E10810
:1014000080E8F80AC0920001D0920101E092020146
:10141000F0920301C701B6019F77FF90EF90DF9034
:10142000CF90BF90AF909F908F90089560930001F0
:101430007093010180930201909303010895052E9A
:1014400097FB1EF400940E94360A57FD07D00E94B5
:10145000510A07FC03D04EF40C94360A509540957F
:10146000309521953F4F4F4F5F4F08959095809550
:10147000709561957F4F8F4F9F4F08950E94730A1B
:10148000A59F900DB49F900DA49F800D911D1124D8
:101490000895B7FF0C943E0A0E943E0A821B930BEC
:1014A0000895A1E21A2EAA1BBB1BFD010DC0AA1FA5
:1014B000BB1FEE1FFF1FA217B307E407F50720F0BD
:1014C000A21BB30BE40BF50B661F771F881F991F38
:1014D0001A9469F760957095809590959B01AC0181
:1014E000BD01CF010895A29FB001B39FC001A39F8A
:1014F000700D811D1124911DB29F700D811D11244D
:10150000911D089597FD1094002E083098F0085012
:10151000232F342F452F562F672F782F892F912D6A
:10152000F4CF159497958795779567955795479537
:10153000379527950A95AAF71124002D0895EE0FE7
:0E154000FF1F0590F491E02D0994F894FFCF61
:10154E000100000000000000CA022A025702320306
:10155E00880266027A020D0A004A65207375697365
:10156E00206C6520736C617665204944203A20001A
:10157E006164647265737320746F2073656E643A70
:10158E0020006164647265737320746F20726563EA
:08159E00656976653A20000042
:00000001FF
